:100000000C9483000C94B4000C94B4000C94B400D1
:100010000C94B4000C94B4000C94B4000C94B40090
:100020000C94B4000C94B4000C94B4000C94B40080
:100030000C94B4000C94B4000C94B4000C94B40070
:100040000C94B4000C94B4000C94B4000C94B40060
:100050000C94B4000C94B4000C94B4000C946002A2
:100060000C94B4000C94D4020C94AA020C94B40026
:100070000C94B4000C94B4000C94B4000C94B40030
:100080000C94B4000C94B4000C94B4000C94B40020
:100090000C94B4000C94B4000C94B4000C94B40010
:1000A0000C94B4000C94B4000C94B4000C94B40000
:1000B0000C94B4000C94B4000C94B4000C94B400F0
:1000C0000C94B4000C94B4000C94B4000C94B400E0
:1000D0000C94B4000C94B4000C94B4000C94B400D0
:1000E0000C94B4000C9439010C94B4040C941701D2
:1000F0000C9408010C9471010C94DB000C94BE016B
:100100000C942B01B40411241FBECFEFD1E2DEBF4B
:10011000CDBF00E00CBF12E0A0E0B2E0E2E9FEE0FB
:1001200000E00BBF02C007900D92A233B107D9F7D0
:1001300022E0A2E3B2E001C01D92A83DB207E1F7C0
:1001400010E0C3E8D0E000E006C021970109802F4D
:10015000FE010E943F07C238D10780E00807A9F7D7
:100160000E940A030C9447070C9400003FB7F894D0
:100170008091370290913802A0913902B0913A02F1
:1001800026B5A89B05C02F3F19F00196A11DB11DF2
:100190003FBFBA2FA92F982F8827BC01CD01620F2E
:1001A000711D811D911D42E0660F771F881F991FE9
:1001B0004A95D1F70895AF92BF92CF92DF92EF9216
:1001C000FF920F931F93CF93DF936C017B018B0101
:1001D000040F151FEB015E01AE18BF08C017D10751
:1001E00059F06991D601ED91FC910190F081E02DDB
:1001F000C6011995892B79F7C501DF91CF911F9120
:100200000F91FF90EF90DF90CF90BF90AF90089547
:10021000FC01538D448D252F30E0842F90E0821B0C
:10022000930B541710F0CF96089501970895FC0191
:10023000918D828D981761F0A28DAE0FBF2FB11DE9
:100240005D968C91928D9F5F9F73928F90E0089541
:100250008FEF9FEF0895FC01918D828D981731F0FB
:10026000828DE80FF11D858D90E008958FEF9FEF4F
:100270000895FC01918D228D892F90E0805C9F4F25
:10028000821B91098F73992708958BE392E00E9456
:10029000390121E0892B09F420E0822F0895FC0127
:1002A000A48DA80FB92FB11DA35ABF4F2C91848DD7
:1002B00090E001968F739927848FA689B7892C9334
:1002C000A089B1898C91837080648C93938D848D87
:1002D000981306C00288F389E02D80818F7D80838A
:1002E0000895EF92FF920F931F93CF93DF93EC014A
:1002F00081E0888F9B8D8C8D98131AC0E889F989CD
:10030000808185FF15C09FB7F894EE89FF896083CF
:10031000E889F98980818370806480839FBF81E050
:1003200090E0DF91CF911F910F91FF90EF90089592
:10033000F62E0B8D10E00F5F1F4F0F731127E02E6D
:100340008C8D8E110CC00FB607FCFACFE889F989A5
:10035000808185FFF5CFCE010E944F01F1CFEB8D5B
:10036000EC0FFD2FF11DE35AFF4FF0829FB7F89479
:100370000B8FEA89FB8980818062CFCFCF93DF9397
:10038000EC01888D8823B9F0AA89BB89E889F989AD
:100390008C9185FD03C0808186FD0DC00FB607FCE2
:1003A000F7CF8C9185FFF2CF808185FFEDCFCE0115
:1003B0000E944F01E9CFDF91CF91089580E090E056
:1003C000892B29F00E94450181110E94000080E0E4
:1003D00090E0892B49F080E090E0892B29F00E9481
:1003E000000081110E94000080E090E0892B49F01C
:1003F00080E090E0892B29F00E94000081110E948A
:10040000000080E090E0892B49F080E090E0892BAB
:1004100029F00E94000081110C9400000895FC0155
:1004200001900020E9F73197AF01481B590BBC013F
:100430008BE392E00C94DB008F929F92AF92BF927D
:100440000F931F93CF93DF93CDB7DEB7A1970FB66E
:10045000F894DEBF0FBECDBF19A2423008F44AE0C7
:100460008E010F5D1F4F842E912CB12CA12CA50164
:1004700094010E941D07E62FB901CA01EA30F4F485
:10048000E05DD801EE938D01232B242B252B79F7EA
:1004900090E080E0109719F0CD010E940F02A19624
:1004A0000FB6F894DEBF0FBECDBFDF91CF911F9185
:1004B0000F91BF90AF909F908F900895E95CE1CF2E
:1004C0001F920F920FB60F9211242F933F938F9389
:1004D0009F93AF93BF938091330290913402A09188
:1004E0003502B09136023091320223E0230F2D37CE
:1004F00058F50196A11DB11D20933202809333025D
:1005000090933402A0933502B09336028091370263
:1005100090913802A0913902B0913A020196A11D42
:10052000B11D8093370290933802A0933902B093A3
:100530003A02BF91AF919F918F913F912F910F9070
:100540000FBE0F901F90189526E8230F0296A11D4D
:10055000B11DD2CF1F920F920FB60F9211240BB67E
:100560000F922F933F934F935F936F937F938F934C
:100570009F93AF93BF93EF93FF938BE392E00E941F
:100580004F01FF91EF91BF91AF919F918F917F911B
:100590006F915F914F913F912F910F900BBE0F90F4
:1005A0000FBE0F901F9018951F920F920FB60F92CB
:1005B00011240BB60F922F938F939F93EF93FF937A
:1005C000E0914B02F0914C028081E0915102F09158
:1005D000520282FD1DC09081809154028F5F8F7303
:1005E00020915502821741F0E0915402F0E0E55C61
:1005F000FD4F958F80935402FF91EF919F918F91C2
:100600002F910F900BBE0F900FBE0F901F9018955B
:100610008081F2CF789484B5826084BD84B5816096
:1006200084BD85B5826085BD85B5816085BD8091BD
:100630006E00816080936E00109281008091810035
:10064000826080938100809181008160809381002D
:10065000809180008160809380008091B1008460EF
:100660008093B1008091B00081608093B000809150
:1006700091008260809391008091910081608093CD
:100680009100809190008160809390008091A10002
:1006900082608093A1008091A10081608093A1007D
:1006A0008091A00081608093A000809121018260F0
:1006B00080932101809121018160809321018091AB
:1006C000200181608093200180917A008460809372
:1006D0007A0080917A00826080937A0080917A001B
:1006E000816080937A0080917A00806880937A009C
:1006F0001092C100E0914B02F0914C0282E08083A5
:10070000E0914702F09148021082E0914902F09195
:100710004A028FEC808310925302E0914F02F091D5
:10072000500286E08083E0914D02F0914E0280817C
:1007300080618083E0914D02F0914E02808188605B
:100740008083E0914D02F0914E0280818068808329
:10075000E0914D02F0914E0280818F7D8083C1E453
:1007600080917B00877F80937B00C0937C00809189
:100770007A00806480937A0080917A0086FDFCCFB5
:100780006091780070917900072E000C880B990B0E
:100790000E94F60520E030E040E85AE30E94AB06F4
:1007A00020E030E44CE955E40E94AB0620E030E064
:1007B00040E251E40E9453056B017C014B015C0156
:1007C00082E192E00E940F02A7019601C701B601E3
:1007D0000E9418078823A1F180E292E00E940F0294
:1007E0008CE292E00E940F028FE292E00E940F02E0
:1007F0000E94B6006B017C0188EE882E83E0982E63
:10080000A12CB12C0E94B6006C197D098E099F099C
:10081000683E734081059105A8F321E0821A910892
:10082000A108B10888EEC80E83E0D81EE11CF11CB7
:1008300081149104A104B10429F70E94DE0190CF34
:1008400026013701E89477F82FEF3FEF4FE75FE796
:10085000C301B2010E94180781110DC02FEF3FEFB5
:100860004FE75FE7C301B2010E944E0518161CF462
:1008700084E292E0B3CF2FEF3FEF4FE75FE4C70191
:10088000B6010E94A60618161CF488E292E0A6CFD4
:100890002FEF3FEF4FE75FECC701B6010E944E0517
:1008A00087FDF3CF20E030E0A901C701B6010E9427
:1008B0004E0587FF0BC06DE28BE392E00E94710151
:1008C00046015701B7FAB094B7F8B0942AE037ED73
:1008D00043EA5BE3C501B4010E94E2044B015C0101
:1008E0000E94C5056B017C010E94F4059B01AC01CF
:1008F000C501B4010E94E1044B015C014AE0C7015B
:10090000B6010E941C026EE28BE392E00E9471012C
:1009100020E030E040E251E4C501B4010E94AB06A2
:100920004B015C010E94C5056B01F12CE12C4AE0F2
:10093000C701B6010E941C02C701B6010E94F4055E
:100940009B01AC01C501B4010E94E10420E030E04C
:1009500040E251E40E94AB060E94C50590E080E0B1
:100960004AE00E941C023CCFEBE3F2E013821282C9
:1009700088EE93E0A0E0B0E084839583A683B783FC
:1009800084E092E09183808385EC90E09587848772
:1009900084EC90E09787868780EC90E0918B808B49
:1009A00081EC90E0938B828B82EC90E0958B848B32
:1009B00086EC90E0978B868B118E128E138E148EA0
:1009C00008955058BB27AA270E94F9040C946C067E
:1009D0000E945E0638F00E94650620F039F49F3FC1
:1009E00019F426F40C945B060EF4E095E7FB0C94E6
:1009F0005506E92F0E947D0658F3BA176207730760
:100A00008407950720F079F4A6F50C949F060EF460
:100A1000E0950B2EBA2FA02D0B01B90190010C010E
:100A2000CA01A0011124FF27591B99F0593F50F426
:100A3000503E68F11A16F040A22F232F342F44277E
:100A4000585FF3CF469537952795A795F040539576
:100A5000C9F77EF41F16BA0B620B730B840BBAF046
:100A60009150A1F0FF0FBB1F661F771F881FC2F7B1
:100A70000EC0BA0F621F731F841F48F487957795C5
:100A80006795B795F7959E3F08F0B0CF9395880F7F
:100A900008F09927EE0F9795879508950E943106E3
:100AA00008F481E008950E9467050C946C060E948A
:100AB000650658F00E945E0640F029F45F3F29F079
:100AC0000C94550651110C94A0060C945B060E94E0
:100AD0007D0668F39923B1F3552391F3951B550BCC
:100AE000BB27AA2762177307840738F09F5F5F4F01
:100AF000220F331F441FAA1FA9F335D00E2E3AF040
:100B0000E0E832D091505040E695001CCAF72BD057
:100B1000FE2F29D0660F771F881FBB1F26173707A8
:100B20004807AB07B0E809F0BB0B802DBF01FF27DA
:100B300093585F4F3AF09E3F510578F00C9455065C
:100B40000C94A0065F3FE4F3983ED4F38695779526
:100B50006795B795F7959F5FC9F7880F911D969593
:100B6000879597F90895E1E0660F771F881FBB1FEF
:100B7000621773078407BA0720F0621B730B840B9C
:100B8000BA0BEE1F88F7E09508950E94850688F05D
:100B90009F5798F0B92F9927B751B0F0E1F0660F41
:100BA000771F881F991F1AF0BA95C9F714C0B13082
:100BB00091F00E949F06B1E008950C949F06672F64
:100BC000782F8827B85F39F0B93FCCF386957795B1
:100BD0006795B395D9F73EF490958095709561959A
:100BE0007F4F8F4F9F4F0895E89409C097FB3EF4C5
:100BF00090958095709561957F4F8F4F9F4F99236A
:100C0000A9F0F92F96E9BB279395F69587957795E7
:100C10006795B795F111F8CFFAF4BB0F11F460FFA7
:100C20001BC06F5F7F4F8F4F9F4F16C0882311F0FF
:100C300096E911C0772321F09EE8872F762F05C013
:100C4000662371F096E8862F70E060E02AF09A95AE
:100C5000660F771F881FDAF7880F9695879597F9A3
:100C60000895990F0008550FAA0BE0E8FEEF16163D
:100C70001706E807F907C0F012161306E407F50790
:100C800098F0621B730B840B950B39F40A2661F004
:100C9000232B242B252B21F408950A2609F4A140A7
:100CA000A6958FEF811D811D089597F99F6780E8B4
:100CB00070E060E008959FEF80EC089500240A94AE
:100CC0001616170618060906089500240A94121627
:100CD0001306140605060895092E0394000C11F45A
:100CE000882352F0BB0F40F4BF2B11F460FF04C007
:100CF0006F5F7F4F8F4F9F4F089557FD9058440F60
:100D0000551F59F05F3F71F04795880F97FB991F6A
:100D100061F09F3F79F08795089512161306140627
:100D2000551FF2CF4695F1DF08C0161617061806B4
:100D3000991FF1CF86957105610508940895E8948F
:100D4000BB2766277727CB0197F908950E943106C4
:100D500008F48FEF08950E94BE060C946C060E9462
:100D60005E0638F00E94650620F0952311F00C9481
:100D700055060C945B0611240C94A0060E947D0677
:100D800070F3959FC1F3950F50E0551F629FF001DE
:100D9000729FBB27F00DB11D639FAA27F00DB11DF7
:100DA000AA1F649F6627B00DA11D661F829F222780
:100DB000B00DA11D621F739FB00DA11D621F839F07
:100DC000A00D611D221F749F3327A00D611D231FDD
:100DD000849F600D211D822F762F6A2F11249F572B
:100DE00050409AF0F1F088234AF0EE0FFF1FBB1F2E
:100DF000661F771F881F91505040A9F79E3F5105ED
:100E000080F00C9455060C94A0065F3FE4F3983EE6
:100E1000D4F3869577956795B795F795E7959F5F96
:100E2000C1F7FE2B880F911D9695879597F9089528
:100E30000E943106880B990B0895A1E21A2EAA1B75
:100E4000BB1BFD010DC0AA1FBB1FEE1FFF1FA2177A
:100E5000B307E407F50720F0A21BB30BE40BF50B77
:100E6000661F771F881F991F1A9469F76095709500
:100E7000809590959B01AC01BD01CF010895EE0FC7
:100E8000FF1F881F8BBF0790F691E02D1994F894EF
:020E9000FFCF92
:100E9200000000007101DB000801BE0139011701E9
:100EA2002B0154656D70726174757265203D20006E
:100EB2006E616E00696E66006F7666002A63000DD1
:020EC2000A0024
:00000001FF
