:020000040000FA
:100000000C945D000C9485000C9485000C94850084
:100010000C9485000C9485000C9485000C9485004C
:100020000C9485000C9485000C9485000C9485003C
:100030000C9485000C9485000C9485000C9485002C
:100040000C947B020C9485000C94EB020C94C5027A
:100050000C9485000C9485000C9485000C9485000C
:100060000C9485000C94850000000008000201003B
:100070000003040700000000000000000000000072
:10008000250028002B0000000000240027002A0083
:10009000040404040404040402020202020203032E
:1000A0000303030301020408102040800102040836
:1000B0001020010204081020FF0311241FBECFEFFF
:1000C000D8E0DEBFCDBF11E0A0E0B1E0E6E1F9E0AD
:1000D00002C005900D92A635B107D9F721E0A6E53B
:1000E000B1E001C01D92AC3FB207E1F710E0CDE5F1
:1000F000D0E004C02197FE010E948304CC35D107D3
:10010000C9F70E941D030C9489040C94000090E030
:10011000FC01EC55FF4F249180579F4FFC018491C7
:10012000882399F090E0880F991FFC01EA57FF4F50
:10013000A591B491FC01E458FF4F859194918FB73C
:10014000F894EC91E22BEC938FBF089590E0FC01C2
:10015000E859FF4F2491FC01EC55FF4F3491FC010D
:10016000E057FF4FE491EE23C9F0222339F023300A
:1001700001F1A8F4213019F1223029F1F0E0EE0F5D
:10018000FF1FE458FF4FA591B4918FB7F894EC91FD
:10019000611126C030953E233C938FBF08952730D0
:1001A000A9F02830C9F0243049F7809180008F7D74
:1001B00003C0809180008F7780938000DFCF84B56B
:1001C0008F7784BDDBCF84B58F7DFBCF8091B0006E
:1001D0008F778093B000D2CF8091B0008F7DF9CF20
:1001E0003E2BDACFAF92BF92CF92DF92EF92FF9287
:1001F0000F931F93CF93DF936C017B018B01040F4F
:10020000151FEB015E01AE18BF08C017D10759F0EA
:100210006991D601ED91FC910190F081E02DC6012C
:100220000995892B79F7C501DF91CF911F910F9126
:10023000FF90EF90DF90CF90BF90AF900895FC01BA
:10024000538D448D252F30E0842F90E0821B930B3B
:10025000541710F0CF96089501970895FC01918DE1
:10026000828D981761F0A28DAE0FBF2FB11D5D96E4
:100270008C91928D9F5F9F73928F90E008958FEF86
:100280009FEF0895FC01918D828D981731F0828D3A
:10029000E80FF11D858D90E008958FEF9FEF089591
:1002A000FC01918D228D892F90E0805C9F4F821BF5
:1002B00091098F73992708958FE591E00E9450016D
:1002C00021E0892B09F420E0822F089580E090E05E
:1002D000892B29F00E945C0181110C940000089583
:1002E000FC01A48DA80FB92FB11DA35ABF4F2C91AB
:1002F000848D90E001968F739927848FA689B789A2
:100300002C93A089B1898C91837080648C93938D98
:10031000848D981306C00288F389E02D80818F7D3B
:1003200080830895EF92FF920F931F93CF93DF93F3
:10033000EC0181E0888F9B8D8C8D98131AC0E88921
:10034000F989808185FF15C09FB7F894EE89FF89F0
:100350006083E889F98980818370806480839FBF8E
:1003600081E090E0DF91CF911F910F91FF90EF908E
:100370000895F62E0B8D10E00F5F1F4F0F7311279E
:10038000E02E8C8D8E110CC00FB607FCFACFE889D9
:10039000F989808185FFF5CFCE010E947001F1CFF0
:1003A000EB8DEC0FFD2FF11DE35AFF4FF0829FB74D
:1003B000F8940B8FEA89FB8980818062CFCFCF933D
:1003C000DF93EC01888D8823B9F0AA89BB89E8897D
:1003D000F9898C9185FD03C0808186FD0DC00FB623
:1003E00007FCF7CF8C9185FFF2CF808185FFEDCFA1
:1003F000CE010E947001E9CFDF91CF9108958F92D5
:100400009F92AF92BF920F931F93CF93DF93CDB77D
:10041000DEB7A1970FB6F894DEBF0FBECDBF19A20D
:10042000423008F44AE08E010F5D1F4F842E912C5C
:10043000B12CA12CA50194010E944B04E62FB90117
:10044000CA01EA3044F5E05DD801EE938D01232B1B
:10045000242B252B79F790E080E0109769F0FD01BF
:1004600001900020E9F73197AF014A1B5B0BBD01FA
:100470008FE591E00E94F200A1960FB6F894DEBFDE
:100480000FBECDBFDF91CF911F910F91BF90AF9065
:100490009F908F900895E95CD7CFCF92DF92EF9233
:1004A000FF92CF93DF936B017C016DE28FE591E0CA
:1004B0000E949201EC0166277727CB016C197D0918
:1004C0008E099F094AE00E94FF018C0F9D1FDF915A
:1004D000CF91FF90EF90DF90CF900895FC010190B5
:1004E0000020E9F73197AF01481B590BBC018FE59C
:1004F00091E00C94F2001F920F920FB60F9211240C
:100500002F933F938F939F93AF93BF9380915B0102
:1005100090915C01A0915D01B0915E0130915A0112
:1005200023E0230F2D3758F50196A11DB11D20930F
:100530005A0180935B0190935C01A0935D01B0939D
:100540005E018091560190915701A0915801B091A0
:1005500059010196A11DB11D809356019093570139
:10056000A0935801B0935901BF91AF919F918F9182
:100570003F912F910F900FBE0F901F90189526E876
:10058000230F0296A11DB11DD2CF1F920F920FB65D
:100590000F9211242F933F934F935F936F937F9309
:1005A0008F939F93AF93BF93EF93FF938FE591E06A
:1005B0000E947001FF91EF91BF91AF919F918F9138
:1005C0007F916F915F914F913F912F910F900FBE4F
:1005D0000F901F9018951F920F920FB60F92112433
:1005E0002F938F939F93EF93FF93E0916F01F0917F
:1005F00070018081E0917501F091760182FD1BC050
:100600009081809178018F5F8F732091790182179B
:1006100041F0E0917801F0E0E15AFE4F958F809330
:100620007801FF91EF919F918F912F910F900FBEC5
:100630000F901F9018958081F4CF789484B58260D4
:1006400084BD84B5816084BD85B5826085BD85B576
:10065000816085BD80916E00816080936E001092F4
:10066000810080918100826080938100809181006F
:100670008160809381008091800081608093800000
:100680008091B10084608093B1008091B00081605E
:100690008093B00080917A00846080937A0080918A
:1006A0007A00826080937A0080917A0081608093E2
:1006B0007A0080917A00806880937A001092C1005D
:1006C000E0916F01F091700182E08083E0916B0115
:1006D000F0916C011082E0916D01F0916E018FEC50
:1006E000808310927701E0917301F091740186E0AC
:1006F0008083E0917101F09172018081806180833B
:10070000E0917101F0917201808188608083E091B5
:100710007101F0917201808180688083E0917101A4
:10072000F091720180818F7D80838DE00E9487002F
:100730008CE00E94870080E4782E88248A9493E0DD
:10074000992EA12CB12C00E010E070927C008091D9
:100750007A00806480937A0080917A0086FDFCCFD5
:10076000A0917800B09179002FEF30E00E947C04D6
:10077000A50194010E942C04E9016901032E000CDB
:10078000EE08FF0824363105FCF061E08DE00E94A0
:10079000A60060E08CE00E94A60082E191E00E9449
:1007A0006E024AE0C701B6010E94FF0188E291E0B3
:1007B0000E946E020115110541F20E945C0188231E
:1007C00021F20E940000C1CF60E08DE00E94A600EF
:1007D00061E08CE00E94A6008CE491E00E946E0231
:1007E000D7FF07C0C701B6010E944D0281E591E025
:1007F000DFCF4AE0C701B6010E94FF01F7CFEFE566
:10080000F1E01382128288EE93E0A0E0B0E08483EE
:100810009583A683B78384E091E09183808385EC00
:1008200090E09587848784EC90E09787868780ECBA
:1008300090E0918B808B81EC90E0938B828B82ECAB
:1008400090E0958B848B86EC90E0978B868B118E55
:10085000128E138E148E0895052E97FB1EF40094AD
:100860000E94430457FD07D00E944B0407FC03D0AD
:100870004EF40C94430450954095309521953F4F8C
:100880004F4F5F4F089590958095709561957F4F7C
:100890008F4F9F4F0895A1E21A2EAA1BBB1BFD018B
:1008A0000DC0AA1FBB1FEE1FFF1FA217B307E4074F
:1008B000F50720F0A21BB30BE40BF50B661F771FA7
:1008C000881F991F1A9469F7609570958095909587
:1008D0009B01AC01BD01CF010895A29FB001B39F60
:1008E000C001A39F700D811D1124911DB29F700D39
:1008F000811D1124911D08950E946D04B7FF089574
:10090000821B930B0895EE0FFF1F0590F491E02DCD
:100910000994F894FFCF000000009201F2001F013B
:10092000DF0150012E014201436F32206C65766574
:100930006C20726973696E6720746F203A005050A2
:100940004D0A20204F787967656E206C6576656C5E
:100950002064656372656173696E672E2E2E2E2E7C
:0C0960002E002E2E2E0A0050504D0000DC
:107E0000112484B714BE81FFF0D085E080938100F7
:107E100082E08093C00088E18093C10086E0809377
:107E2000C20080E18093C4008EE0C9D0259A86E02C
:107E300020E33CEF91E0309385002093840096BBD3
:107E4000B09BFECF1D9AA8958150A9F7CC24DD24C4
:107E500088248394B5E0AB2EA1E19A2EF3E0BF2EE7
:107E6000A2D0813461F49FD0082FAFD0023811F036
:107E7000013811F484E001C083E08DD089C08234E0
:107E800011F484E103C0853419F485E0A6D080C0E4
:107E9000853579F488D0E82EFF2485D0082F10E0AE
:107EA000102F00270E291F29000F111F8ED06801E7
:107EB0006FC0863521F484E090D080E0DECF843638
:107EC00009F040C070D06FD0082F6DD080E0C81688
:107ED00080E7D80618F4F601B7BEE895C0E0D1E017
:107EE00062D089930C17E1F7F0E0CF16F0E7DF06D8
:107EF00018F0F601B7BEE89568D007B600FCFDCFD4
:107F0000A601A0E0B1E02C9130E011968C91119780
:107F100090E0982F8827822B932B1296FA010C0160
:107F200087BEE89511244E5F5F4FF1E0A038BF0790
:107F300051F7F601A7BEE89507B600FCFDCF97BE46
:107F4000E89526C08437B1F42ED02DD0F82E2BD052
:107F50003CD0F601EF2C8F010F5F1F4F84911BD097
:107F6000EA94F801C1F70894C11CD11CFA94CF0C13
:107F7000D11C0EC0853739F428D08EE10CD085E9AC
:107F80000AD08FE07ACF813511F488E018D01DD067
:107F900080E101D065CF982F8091C00085FFFCCF94
:107FA0009093C60008958091C00087FFFCCF809118
:107FB000C00084FD01C0A8958091C6000895E0E648
:107FC000F0E098E1908380830895EDDF803219F02E
:107FD00088E0F5DFFFCF84E1DECF1F93182FE3DFCA
:107FE0001150E9F7F2DF1F91089580E0E8DFEE27F6
:047FF000FF270994CA
:027FFE00040479
:00000001FF
