:100000000C9428010C9459010C9459010C94590139
:100010000C9459010C9459010C9459010C945901F8
:100020000C9459010C9459010C9459010C945901E8
:100030000C9459010C9459010C9459010C945901D8
:100040000C9459010C9459010C9459010C945901C8
:100050000C9459010C9459010C9459010C943604D8
:100060000C9459010C94AA040C9480040C9459012A
:100070000C9459010C9459010C9459010C94590198
:100080000C9459010C9459010C9459010C94590188
:100090000C9459010C9459010C9459010C94590178
:1000A0000C9459010C9459010C9459010C94590168
:1000B0000C9459010C9459010C9459010C94590158
:1000C0000C9459010C9459010C9459010C94590148
:1000D0000C9459010C9459010C9459010C94590138
:1000E0000C9459010C94EE010C94FC010C9406063E
:1000F0000C9400020C94C8020C94D6020C945B037E
:100100000C9478020C94C5010C94F2010C94D60165
:100110000C94C9010C94C1010C94E4010C94AA0143
:100120000C94A5020C94E8010C94DA010C94AF0134
:100130000C94CD010C94B4020C940E030C94F601B3
:100140000C94D0010C94E00100000A0B02090C0D84
:100150000E0807030401000000000000000000007A
:10016000000000000000000000000000000000008F
:10017000000000001211100000000000000000004C
:10018000000000000000000000000000000000006F
:100190002200250028002B002E003100340002012F
:1001A0000000050108010B010000210024002700C8
:1001B0002A002D0030003300010100000401070176
:1001C0000A010505050507050808080802020202DC
:1001D0000A0A0808040404040101010101010101E3
:1001E0000303030303030303040707070C0C0C0CAE
:1001F0000C0C0C0C02020202060606060606060697
:100200000B0B0B0B0B0B0B0B010210202008081023
:100210002040102040800201020108040201010276
:10022000040810204080804020100804020180044F
:1002300002018040201008040201080402010102AA
:1002400004081020408001020408102040800606A7
:1002500011241FBECFEFD1E2DEBFCDBF00E00CBF47
:1002600012E0A0E0B2E0E8E2FDE000E00BBF02C077
:1002700007900D92AA37B107D9F723E0AAE7B2E0B9
:1002800001C01D92A232B207E1F711E0C8E2D1E04D
:1002900000E006C021970109802FFE010E9483061D
:1002A000C732D10780E00807A9F70E94E0040C9448
:1002B00092060C94000090E0FC01E85FFD4F249151
:1002C0008E539E4FFC018491882399F090E0880F13
:1002D000991FFC01E855FE4FA591B491FC01E2572E
:1002E000FE4F859194918FB7F894EC91E22BEC93AB
:1002F0008FBF0895282F30E0F901E85BFE4F9491FD
:10030000F901E85FFD4F44912E533E4FF9012491CE
:10031000222309F435C0992311F191509231F8F458
:10032000E92FF0E08827E856FE4F8F4F0C948306A4
:10033000C901CD01AA01C101C501AF01D001D6019A
:10034000DA01E001E401E801EE01F201AF01F6019A
:10035000FC010002809180008F7780938000E22F63
:10036000F0E0EE0FFF1FE257FE4FA591B4918FB75B
:10037000F894EC91611148C040954E234C938FBF87
:100380000895809180008F7DE8CF80918000877FE5
:10039000E4CF84B58F7784BDE2CF84B58F7DFBCF6A
:1003A0008091B0008F778093B000D9CF8091B0005A
:1003B0008F7DF9CF809190008F7780939000CFCF81
:1003C000809190008F7DF9CF80919000877FF5CF4D
:1003D0008091A0008F778093A000C1CF8091A00072
:1003E0008F7DF9CF8091A000877FF5CF809120018C
:1003F0008F7780932001B3CF809120018F7DF9CF3B
:1004000080912001877FF5CF4E2BB8CF90917B0054
:10041000977F90937B008653806480937C008091CB
:100420007A00806480937A0080917A0086FDFCCF08
:10043000809178009091790008953FB7F894809169
:10044000810290918202A0918302B091840226B52C
:10045000A89B05C02F3F19F00196A11DB11D3FBFFC
:10046000BA2FA92F982F8827BC01CD01620F711DCB
:10047000811D911D42E0660F771F881F991F4A95C5
:10048000D1F708958F929F92AF92BF92CF92DF9251
:10049000EF92FF920E941D024B015C0188EEC82E74
:1004A00083E0D82EE12CF12C0E941D0268197909F5
:1004B0008A099B09683E734081059105A8F321E0F4
:1004C000C21AD108E108F10888EE880E83E0981E70
:1004D000A11CB11CC114D104E104F10429F7FF905F
:1004E000EF90DF90CF90BF90AF909F908F90089546
:1004F000AF92BF92CF92DF92EF92FF920F931F9332
:10050000CF93DF936C017B018B01040F151FEB016F
:100510005E01AE18BF08C017D10759F06991D60126
:10052000ED91FC910190F081E02DC6011995892B88
:1005300079F7C501DF91CF911F910F91FF90EF9057
:10054000DF90CF90BF90AF900895FC01538D448D04
:10055000252F30E0842F90E0821B930B541710F06E
:10056000CF96089501970895FC01918D828D98177B
:1005700061F0A28DAE0FBF2FB11D5D968C91928D53
:100580009F5F9F73928F90E008958FEF9FEF089584
:10059000FC01918D828D981731F0828DE80FF11D4D
:1005A000858D90E008958FEF9FEF0895FC01918D68
:1005B000228D892F90E0805C9F4F821B91098F7361
:1005C0009927089585E892E00E94D60221E0892BC0
:1005D00009F420E0822F0895FC01A48DA80FB92F03
:1005E000B11DA35ABF4F2C91848D90E001968F735B
:1005F0009927848FA689B7892C93A089B1898C917A
:10060000837080648C93938D848D981306C00288C8
:10061000F389E02D80818F7D80830895EF92FF9292
:100620000F931F93CF93DF93EC0181E0888F9B8D15
:100630008C8D98131AC0E889F989808185FF15C0CF
:100640009FB7F894EE89FF896083E889F9898081F2
:100650008370806480839FBF81E090E0DF91CF91C1
:100660001F910F91FF90EF900895F62E0B8D10E0E3
:100670000F5F1F4F0F731127E02E8C8D8E110CC052
:100680000FB607FCFACFE889F989808185FFF5CF9D
:10069000CE010E94EC02F1CFEB8DEC0FFD2FF11D8E
:1006A000E35AFF4FF0829FB7F8940B8FEA89FB89DA
:1006B00080818062CFCFCF93DF93EC01888D882338
:1006C000B9F0AA89BB89E889F9898C9185FD03C0B5
:1006D000808186FD0DC00FB607FCF7CF8C9185FF9A
:1006E000F2CF808185FFEDCFCE010E94EC02E9CFF1
:1006F000DF91CF91089580E090E0892B29F00E944E
:10070000E20281110E94000080E090E0892B49F014
:1007100080E090E0892B29F00E94000081110E9466
:10072000000080E090E0892B49F080E090E0892B88
:1007300029F00E94000081110E94000080E090E0FA
:10074000892B49F080E090E0892B29F00E9400007D
:1007500081110C9400000895FC0101900020E9F73C
:100760003197AF01481B590BBC0185E892E00C940E
:1007700078028F929F92AF92BF92CF92DF92EF92C8
:10078000FF920F931F93CF93DF93CDB7DEB7A1975F
:100790000FB6F894DEBF0FBECDBF6C01990FEE0807
:1007A000FF08F7FE41C06DE285E892E00E940E036B
:1007B0008C0122273327A9012C193D094E095F0915
:1007C00019A2CE0181967C019AE0892E912CA12C50
:1007D000B12CCA01B901A50194010E945206605DC5
:1007E000F70162937F01211531054105510589F714
:1007F00090E080E0309719F0CF010E94AC03800FA9
:10080000911FA1960FB6F894DEBF0FBECDBFDF914A
:10081000CF911F910F91FF90EF90DF90CF90BF90FD
:10082000AF909F908F900895A701960119A28E0115
:100830000F5D1F4F8AE0C82ED12CE12CF12CCA018C
:10084000B901A70196010E945206605DF80162930A
:100850008F01211531054105510589F790E080E0B0
:10086000309779F2CF010E94AC03CBCF1F920F9249
:100870000FB60F9211242F933F938F939F93AF93B3
:10088000BF9380917D0290917E02A0917F02B091F2
:10089000800230917C0223E0230F2D3758F501961A
:1008A000A11DB11D20937C0280937D0290937E0256
:1008B000A0937F02B0938002809181029091820286
:1008C000A0918302B09184020196A11DB11D809375
:1008D000810290938202A0938302B0938402BF911D
:1008E000AF919F918F913F912F910F900FBE0F90DD
:1008F0001F90189526E8230F0296A11DB11DD2CF97
:100900001F920F920FB60F9211240BB60F922F93D6
:100910003F934F935F936F937F938F939F93AF9387
:10092000BF93EF93FF9385E892E00E94EC02FF9162
:10093000EF91BF91AF919F918F917F916F915F9157
:100940004F913F912F910F900BBE0F900FBE0F90C4
:100950001F9018951F920F920FB60F9211240BB68D
:100960000F922F938F939F93EF93FF93E0919502B4
:10097000F09196028081E0919B02F0919C0282FDB1
:100980001DC0908180919E028F5F8F7320919F0286
:10099000821741F0E0919E02F0E0EB57FD4F958FFA
:1009A00080939E02FF91EF919F918F912F910F90D5
:1009B0000BBE0F900FBE0F901F9018958081F2CF45
:1009C000789484B5826084BD84B5816084BD85B52A
:1009D000826085BD85B5816085BD80916E00816036
:1009E00080936E00109281008091810082608093DC
:1009F00081008091810081608093810080918000DE
:100A00008160809380008091B10084608093B10008
:100A10008091B00081608093B000809191008260ED
:100A200080939100809191008160809391008091EA
:100A300090008160809390008091A10082608093FB
:100A4000A1008091A10081608093A1008091A0000D
:100A500081608093A00080912101826080932101B8
:100A6000809121018160809321018091200181602A
:100A70008093200180917A00846080937A00809135
:100A80007A00826080937A0080917A0081608093FE
:100A90007A0080917A00806880937A001092C10079
:100AA000E0919502F091960282E08083E0919102BC
:100AB000F09192021082E0919302F09194028FECF7
:100AC000808310929D02E0919902F0919A0286E053
:100AD0008083E0919702F091980280818061808309
:100AE000E0919702F0919802808188608083E09184
:100AF0009702F0919802808180688083E09197024C
:100B0000F091980280818F7D808386E10E945B0155
:100B10008FE10E945B0185E20E945B0188248A9438
:100B200083E0982EA12CB12C86E30E9406027C0162
:100B300090937B0280937A0287E30E9406022FEF54
:100B400030E0D7010E948B06A50194010E94330674
:100B50006901233331050CF441C0243631050CF111
:100B600061E086E10E947A0160E08FE10E947A01F3
:100B700061E085E20E947A0182E192E00E94AC038A
:100B8000C6010E94B9038AE292E00E94AC0388E2A7
:100B900092E00E94AC038BE292E00E94AC030E94C0
:100BA000420261E086E10E947A0160E08FE10E94EA
:100BB0007A0161E085E20E947A018FE492E00E946E
:100BC000AC038AE292E00E94AC0388E292E00E94C9
:100BD000AC030E9442020E947B03A6CF60E086E144
:100BE0000E947A0161E08FE10E947A0160E085E273
:100BF0000E947A0180E792E00E94AC03C6010E9445
:100C0000B90385E792E00E94AC03E5CFE5E8F2E0A6
:100C10001382128288EE93E0A0E0B0E08483958393
:100C2000A683B78384E092E09183808385EC90E093
:100C30009587848784EC90E09787868780EC90E0A6
:100C4000918B808B81EC90E0938B828B82EC90E097
:100C5000958B848B86EC90E0978B868B118E128E11
:100C6000138E148E0895052E97FB1EF400940E9497
:100C70004A0657FD07D00E94520607FC03D04EF4E7
:100C80000C944A0650954095309521953F4F4F4F13
:100C90005F4F089590958095709561957F4F8F4F28
:100CA0009F4F0895A1E21A2EAA1BBB1BFD010DC088
:100CB000AA1FBB1FEE1FFF1FA217B307E407F5070C
:100CC00020F0A21BB30BE40BF50B661F771F881FE8
:100CD000991F1A9469F760957095809590959B017E
:100CE000AC01BD01CF010895A29FB001B39FC00127
:100CF000A39F700D811D1124911DB29F700D811D48
:100D00001124911D0895EE0FFF1F881F8BBF0790C0
:100D1000F691E02D19940E947406B7FF0895821B86
:080D2000930B0895F894FFCF36
:100D2800000000000E037802A5025B03D602B4029D
:100D3800C802436F32206C6576656C2072697369EE
:100D48006E6720746F203A000D0A0050504D0A203B
:100D5800204F787967656E206C6576656C206465D0
:100D68006372656173696E672E2E2E2E2E2E0050CB
:100D7800617469656E74206E656564732075726749
:100D8800656E7420636865636B757070212121003E
:0A0D98002E2E2E0A0050504D0000D0
:00000001FF
