:020000040000FA
:100000000C9463000C948B000C948B000C948B006C
:100010000C948B000C948B000C948B000C946C054E
:100020000C948B000C948B000C948B000C948B0024
:100030000C948B000C948B000C948B000C948B0014
:100040000C9422050C948B000C948B000C948B0068
:100050000C948B000C948B000C948B000C948B00F4
:100060000C948B000C948B000000000023002600F1
:10007000290000000000240027002A0000000008DA
:10008000000201000003040700000000000000005F
:10009000010204081020408001020408102001021F
:1000A0000408102000000000250028002B00040494
:1000B0000404040404040202020202020303030310
:1000C00003030200370811241FBECFEFD8E0DEBFC4
:1000D000CDBF11E0A0E0B1E0EAEAF5E102C0059091
:1000E0000D92AA35B107D9F721E0AAE5B1E001C028
:1000F0001D92A03AB207E1F710E0C3E6D0E004C0D9
:100100002197FE010E94BE0AC236D107C9F70E949C
:1001100033060C94D30A0C940000833081F028F449
:10012000813099F08230A9F008958730A9F08830A5
:10013000C9F08430B1F4809180008F7D03C080913C
:1001400080008F7780938000089584B58F7784BD79
:10015000089584B58F7DFBCF8091B0008F77809319
:10016000B00008958091B0008F7DF9CF1F93CF9399
:10017000DF93282F30E0F901E458FF4F8491F90113
:10018000E057FF4FD491F901E255FF4FC491CC23C2
:10019000A9F0162F81110E948D00EC2FF0E0EE0FD8
:1001A000FF1FEC55FF4FA591B4918FB7F894EC91D8
:1001B000111108C0D095DE23DC938FBFDF91CF9162
:1001C0001F910895DE2BF8CFCF93DF9390E0FC01D1
:1001D000E057FF4F249182559F4FFC018491882363
:1001E000C9F090E0880F991FFC01EE58FF4FA591D0
:1001F000B491FC01EC55FF4FC591D49161110DC034
:100200009FB7F8948C91209582238C938881282322
:1002100028839FBFDF91CF910895623051F49FB73B
:10022000F8943C91822F809583238C93E8812E2B28
:10023000EFCF8FB7F894EC912E2B2C938FBFEACF92
:10024000CF92DF92EF92FF921F93CF93DF936B01D8
:100250007C01809100018A3051F08F3FF9F0DF91ED
:10026000CF911F91FF90EF90DF90CF900895E2EC37
:10027000F0E0C491C7FDF3CF61E08AE00E94E400A2
:10028000CC2309F479C0C23009F09DC08091B1003F
:10029000887F83608093B100D2E573C08AE0809349
:1002A0000001E2ECF0E0C491CF3FC9F2C13021F18E
:1002B00050F0C23009F43EC0C7FDD1CF61E08AE002
:1002C0000E94E400E0CF14BC15BC84B5826084BDFC
:1002D00085B5816085BDE8EBF0E0E491F0E0EE0FDC
:1002E000FF1FEC55FF4F85919491EAE9F0E0E4910E
:1002F000E0937B01C0E0C0CF10928000109281009B
:10030000809181008860809381008091810081606C
:1003100080938100E8EBF0E0E491F0E0EE0FFF1F46
:10032000EC55FF4F85919491EAE9F0E0E491E09378
:100330007A01A2CF1092B0001092B1008091B0006B
:1003400082608093B0008091B10081608093B100A1
:10035000E8EBF0E0E491F0E0EE0FFF1FEC55FF4F0B
:10036000859194919093790180937801EAE9F0E086
:10037000E491E093770180CF85B5887F836085BD68
:10038000D8E210E0A0E7B7E1A70196010E94B30A06
:1003900028EE33E040E050E00E94910AC130F1F0D5
:1003A000C23081F1C1115BCFD7BD2093840130935E
:1003B0008501409386015093870180916E00826091
:1003C00080936E004CCFC13031F480918100887FE2
:1003D000816080938100D9E61AE0D4CF8D2F912FD0
:1003E000909389008093880020938001309381014D
:1003F000409382015093830180916F0082608093CB
:100400006F002DCFD093B30020937C0130937D01FA
:1004100040937E0150937F018091700082608093B1
:1004200070001DCF3FB7F8948091730190917401D3
:10043000A0917501B091760126B5A89B05C02F3F0C
:1004400019F00196A11DB11D3FBFBA2FA92F982FFA
:100450008827BC01CD01620F711D811D911D42E0F5
:10046000660F771F881F991F4A95D1F708958F92BD
:100470009F92AF92BF92CF92DF92EF92FF924B0189
:100480005C010E9412026B017C010E9412026C1935
:100490007D098E099F09683E734081059105A8F387
:1004A00021E0821A9108A108B10888EEC80E83E005
:1004B000D81EE11CF11C81149104A104B10429F798
:1004C000FF90EF90DF90CF90BF90AF909F908F9074
:1004D0000895AF92BF92CF92DF92EF92FF920F9367
:1004E0001F93CF93DF936C017B018B01040F151FCA
:1004F000EB015E01AE18BF08C017D10759F0699132
:10050000D601ED91FC910190F081E02DC601099595
:10051000892B79F7C501DF91CF911F910F91FF9042
:10052000EF90DF90CF90BF90AF900895089590E046
:1005300080E00895FC0101900020E9F73197AF01B8
:10054000481B590BBC0188E891E00C9469028F921A
:100550009F92AF92BF920F931F93CF93DF93CDB72C
:10056000DEB7A1970FB6F894DEBF0FBECDBF19A2BC
:10057000423008F44AE08E010F5D1F4F842E912C0B
:10058000B12CA12CA50194010E94910AE62FB9017A
:10059000CA01EA30F4F4E05DD801EE938D01232B1B
:1005A000242B252B79F790E080E0109719F0CD01EE
:1005B0000E949A02A1960FB6F894DEBF0FBECDBF7F
:1005C000DF91CF911F910F91BF90AF909F908F902F
:1005D0000895E95CE1CFCF93DF93EC0160E08E8179
:1005E0000E94B60061E08E810E94B60060E08E81BC
:1005F0000E94B6008BE891E00197F1F7DF91CF916F
:100600000895CF92DF92EF92FF920F931F93CF93B3
:10061000DF936C017C0187E0E80EF11CD0E0C0E0C4
:10062000062F10E0B8010C2E02C0759567950A944C
:10063000E2F76170F70181917F010E94B600219677
:10064000C430D10579F7C601DF91CF911F910F9189
:10065000FF90EF90DF90CF900C94EB02CF92DF925F
:10066000EF92FF920F931F93CF93DF93EC01F62E3F
:10067000642F8C810E94B6008D818F3F19F060E05D
:100680000E94B6000F2D10E08F8584FF25C06E01FB
:1006900087E0C80ED11CF12CE12CB8010E2C02C051
:1006A000759567950A94E2F76170F60181916F0183
:1006B0000E94B600FFEFEF1AFF0A88E0E816F10487
:1006C00061F7CE01DF91CF911F910F91FF90EF90D5
:1006D000DF90CF900C94EB02B80184E0759567959C
:1006E0008A95E1F7CE010E9401036F2DCE01DF91C3
:1006F000CF911F910F91FF90EF90DF90CF900C94CE
:10070000010340E0682F88E891E00C942E0381E01B
:100710000E9481038BE39FE10197F1F70895CF9346
:10072000DF93823029F4909197019860909397011C
:1007300080939B0110929C0180E480939D0180E155
:1007400080939E0180E580939F0161E080918C0100
:100750000E94E40080918D018F3F19F061E00E94BA
:10076000E40061E080918E010E94E400C8E8D1E0DD
:100770009E01285831408091970184FD0BC084E090
:1007800090E021962817390744F461E08E810E9499
:10079000E400EECF88E090E0F4CF8BE39DE001979A
:1007A000F1F760E080918C010E94B60060E08091DA
:1007B0008E010E94B60080918D018F3F19F060E09C
:1007C0000E94B6008091970184FD34C063E088E800
:1007D00091E00E940103CBE4D6E4CE010197F1F74A
:1007E00063E088E891E00E9401032197F1F763E05C
:1007F00088E891E00E94010383E592E00197F1F718
:1008000062E088E891E00E94010380919701806294
:100810000E94810384E0809398018CE00E94810310
:100820000E94870382E08093990186E0DF91CF9157
:100830000C94810380620E9481038BE496E401970B
:10084000F1F78091970180620E94810383E592E035
:100850000197F1F78091970180620E948103D5CFC3
:1008600090919B01891710F08FEF890FE82FF0E02E
:10087000E857FE4F848980680C94810341E00E9410
:100880002E0381E090E008954F925F926F927F92E5
:100890008F929F92AF92BF92CF92DF92EF92FF9290
:1008A0000F931F93CF936B017C01742EAC019B01BE
:1008B0000E948C0A882399F08DE091E0CF911F91DE
:1008C0000F91FF90EF90DF90CF90BF90AF909F90EF
:1008D0008F907F906F905F904F900C949A0246019A
:1008E0005701E894B7F82FEF3FEF4FE75FE7C501F7
:1008F000B4010E948C0A81110DC02FEF3FEF4FE72A
:100900005FE7C501B4010E94C20818161CF481E11A
:1009100091E0D4CF2FEF3FEF4FE75FE4C701B6017F
:100920000E941A0A18161CF485E191E0C7CF2FEF38
:100930003FEF4FE75FECC701B6010E94C20887FD99
:10094000F3CF20E030E0A901C701B6010E94C20840
:1009500010E000E087FF0CC041E06DE288E891E024
:100960000E942E03F7FAF094F7F8F09401E010E0FB
:10097000C0E060E070E080E09FE37C1641F020E0A2
:1009800030E040E251E40E94C708CF5FF6CFA701F4
:1009900096010E9456084B015C010E9439092B0107
:1009A0003C014AE00E94A702080F191FCC23C9F19D
:1009B000C301B2010E9468099B01AC01C501B401E9
:1009C0000E9455084B015C0141E06EE288E891E02D
:1009D0000E942E030F5F1F4FC15018F120E030E03E
:1009E00040E251E4C501B4010E941F0A2B013C0101
:1009F0000E9439094B01B12CA12C4AE0C501B40178
:100A00000E94A702080F191FC501B4010E946809BE
:100A10009B01AC01C301B2010E9455084B015C016E
:100A2000DBCFC801CF911F910F91FF90EF90DF9026
:100A3000CF90BF90AF909F908F907F906F905F907E
:100A40004F9008951F920F920FB60F9211242F937B
:100A50003F938F939F93AF93BF9380916F0190913A
:100A60007001A0917101B091720130916E0123E08B
:100A7000230F2D3758F50196A11DB11D20936E014E
:100A800080936F0190937001A0937101B0937201F4
:100A90008091730190917401A0917501B0917601DC
:100AA0000196A11DB11D8093730190937401A093D1
:100AB0007501B0937601BF91AF919F918F913F9156
:100AC0002F910F900FBE0F901F90189526E8230FBF
:100AD0000296A11DB11DD2CF1F920F920FB60F9299
:100AE00011242F933F934F935F936F937F938F9333
:100AF0009F93AF93BF93EF93FF9380917C0190916D
:100B00007D01A0917E01B0917F01892B8A2B8B2BD7
:100B1000D1F190917701E0917801F0917901808194
:100B20008927808380917C0190917D01A0917E0135
:100B3000B0917F01181619061A061B069CF48091C5
:100B40007C0190917D01A0917E01B0917F01019780
:100B5000A109B10980937C0190937D01A0937E014E
:100B6000B0937F01FF91EF91BF91AF919F918F91D2
:100B70007F916F915F914F913F912F910F900FBE99
:100B80000F901F90189580910001E2ECF0E0E49145
:100B90009FEF90930001E13051F030F0E23069F0C6
:100BA00060E00E94B600DECF10926E00F9CF909107
:100BB0006F009D7F90936F00F3CF909170009D7FA9
:100BC0009093700091E09093B0009091B100987F65
:100BD00094609093B1001092B300E2CFCF92DF9275
:100BE000EF92FF920F931F93E82FF92F05C001504A
:100BF00011092109310961F1908196239417B9F304
:100C000005C0015011092109310911F19081962384
:100C10009413F7CFC12CD12CE12CF12C0AC08FEF0B
:100C2000C81AD80AE80AF80A0C151D052E053F0552
:100C300079F080818623841791F36C2D7D2D8E2D84
:100C40009F2D1F910F91FF90EF90DF90CF9008950F
:100C500060E070E080E090E01F910F91FF90EF90D6
:100C6000DF90CF900895789484B5826084BD84B578
:100C7000816084BD85B5826085BD85B5816085BD97
:100C800080916E00816080936E001092810080914F
:100C900081008260809381008091810081608093D7
:100CA0008100809180008160809380008091B100FC
:100CB00084608093B1008091B00081608093B00027
:100CC00080917A00846080937A0080917A008260BB
:100CD00080937A0080917A00816080937A0080917D
:100CE0007A00806880937A001092C10062E083E10C
:100CF0000E94E40060E08EE00E94E40061E08FE08A
:100D00000E94E40061E089E00E94E40061E088E084
:100D10000E94E40061E08AE00E94E40082E00E9418
:100D20008F030E94870380E00E94300489E191E0F4
:100D30000E949A0281E00E9430048AE291E00E94BF
:100D40009A0260ED77E080E090E00E9437020E9416
:100D5000870323E0C22ED12C33E2A32EB12C4FE81F
:100D6000242E40E0342E53EA452E50E0552E61ECFF
:100D7000662E60E0762E70E0872E70E0972EC1E040
:100D8000D0E0E2E0EE2EF12C60E08FE00E94B600B1
:100D9000C6010197F1F761E08FE00E94B600C5013E
:100DA0000197F1F7EEE9F0E06491ECEBF0E084916B
:100DB000E82FF0E0EE0FFF1FE859FF4F8591949167
:100DC00000E412E42FE030E0462F0E94EE056115AA
:100DD00071058105910529F06F5F7F4F8F4F9F4F00
:100DE0009F700E946A0920E030E044EE51E40E94C6
:100DF000C70820E030E040E05FE30E941F0A6093F4
:100E00006A0170936B0180936C0190936D0120E0F7
:100E100030E040EF51E40E94C2081816CCF08091F7
:100E2000680190916901892B99F42FB7F89480910A
:100E30006F0190917001A0917101B09172012FBF6B
:100E40009093670180936601D0936901C093680114
:100E500020E030E040EA51E460916A0170916B015A
:100E600080916C0190916D010E94C2081816CCF01F
:100E70008091640190916501892B99F42FB7F894C2
:100E800080916F0190917001A0917101B0917201F8
:100E90002FBF9093630180936201D0936501C0934B
:100EA00064018091680190916901019709F06DC01A
:100EB0008091640190916501019709F066C0F092FC
:100EC0006901E0926801F0926501E092640180910D
:100ED00066019091670160916201709163016817EA
:100EE00079070CF0ADC09C01261B370BB901072E0A
:100EF000000C880B990B0E946A0960935E01709345
:100F00005F01809360019093610120E030E04AE747
:100F100054E460915E0170915F0180916001909155
:100F200061010E94C7089B01AC0120935E013093D0
:100F30005F01409360015093610160E070E080E2E6
:100F400091E40E94C70820E030E041E655E40E94A9
:100F50001F0A20E030E04AE754E40E94C70860938B
:100F60005A0170935B0180935C0190935D0160E096
:100F700089E00E94B60061E088E00E94B60068EC5B
:100F800070E080E090E00E942001F1018491F20184
:100F90000491F301149111115AC010925A01109248
:100FA0005B0110925C0110925D0110926901109238
:100FB0006801109265011092640161E089E00E946D
:100FC000B60060E088E00E94B60060E971E080E071
:100FD00090E00E94200180E00E9430048BE391E0C9
:100FE0000E949A0260916A0170916B0180916C017C
:100FF00090916D0142E00E94440488E491E00E94D7
:101000009A0281E00E9430048CE491E00E949A02EE
:1010100060915A0170915B0180915C0190915D013A
:1010200042E00E9444046AE070E080E090E00E94A8
:1010300037028114910409F4A7CE0E940000A4CEC7
:10104000861797070CF061CF681B790B50CF811181
:101050000E948D00E12FF0E0EE0FFF1FE859FF4FD7
:10106000A591B4918C91082309F497CFB4CFE8E807
:10107000F1E01382128285E091E09183808382E027
:1010800084838FEF858383E0868384E0878385E094
:10109000808786E0818787E082871386148615869D
:1010A0001686178681E00C948F035058BB27AA2719
:1010B0000E946D080C94E0090E94D20938F00E9449
:1010C000D90920F039F49F3F19F426F40C94CF0984
:1010D0000EF4E095E7FB0C94C909E92F0E94F10991
:1010E00058F3BA17620773078407950720F079F45D
:1010F000A6F50C94130A0EF4E0950B2EBA2FA02D32
:101100000B01B90190010C01CA01A0011124FF27B4
:10111000591B99F0593F50F4503E68F11A16F040AF
:10112000A22F232F342F4427585FF3CF46953795AE
:101130002795A795F0405395C9F77EF41F16BA0B73
:10114000620B730B840BBAF09150A1F0FF0FBB1F21
:10115000661F771F881FC2F70EC0BA0F621F731F6A
:10116000841F48F4879577956795B795F7959E3FC7
:1011700008F0B0CF9395880F08F09927EE0F979558
:10118000879508950E94A50908F481E008950E94BA
:10119000DB080C94E0090E94D90958F00E94D2099A
:1011A00040F029F45F3F29F00C94C90951110C94C7
:1011B000140A0C94CF090E94F10968F39923B1F342
:1011C000552391F3951B550BBB27AA27621773076D
:1011D000840738F09F5F5F4F220F331F441FAA1F01
:1011E000A9F335D00E2E3AF0E0E832D091505040BD
:1011F000E695001CCAF72BD0FE2F29D0660F771F6B
:10120000881FBB1F261737074807AB07B0E809F050
:10121000BB0B802DBF01FF2793585F4F3AF09E3FD5
:10122000510578F00C94C9090C94140A5F3FE4F35B
:10123000983ED4F3869577956795B795F7959F5F18
:10124000C9F7880F911D9695879597F90895E1E064
:10125000660F771F881FBB1F621773078407BA07C3
:1012600020F0621B730B840BBA0BEE1F88F7E0951E
:1012700008950E94F90988F09F5798F0B92F99278F
:10128000B751B0F0E1F0660F771F881F991F1AF071
:10129000BA95C9F714C0B13091F00E94130AB1E0B9
:1012A00008950C94130A672F782F8827B85F39F0B8
:1012B000B93FCCF3869577956795B395D9F73EF40A
:1012C00090958095709561957F4F8F4F9F4F0895B2
:1012D000E89409C097FB3EF49095809570956195D0
:1012E0007F4F8F4F9F4F9923A9F0F92F96E9BB2786
:1012F0009395F695879577956795B795F111F8CF02
:10130000FAF4BB0F11F460FF1BC06F5F7F4F8F4F6C
:101310009F4F16C0882311F096E911C0772321F062
:101320009EE8872F762F05C0662371F096E8862FFA
:1013300070E060E02AF09A95660F771F881FDAF751
:10134000880F9695879597F90895990F0008550F7E
:10135000AA0BE0E8FEEF16161706E807F907C0F03B
:1013600012161306E407F50798F0621B730B840B43
:10137000950B39F40A2661F0232B242B252B21F41D
:1013800008950A2609F4A140A6958FEF811D811DBD
:10139000089597F99F6780E870E060E008959FEFF7
:1013A00080EC089500240A941616170618060906FC
:1013B000089500240A9412161306140605060895CB
:1013C000092E0394000C11F4882352F0BB0F40F453
:1013D000BF2B11F460FF04C06F5F7F4F8F4F9F4F93
:1013E000089557FD9058440F551F59F05F3F71F015
:1013F0004795880F97FB991F61F09F3F79F087957C
:101400000895121613061406551FF2CF4695F1DF04
:1014100008C0161617061806991FF1CF8695710594
:10142000610508940895E894BB2766277727CB01C8
:1014300097F908950E94A50908F48FEF08950E9476
:10144000320A0C94E0090E94D20938F00E94D909AE
:1014500020F0952311F00C94C9090C94CF091124A4
:101460000C94140A0E94F10970F3959FC1F3950F33
:1014700050E0551F629FF001729FBB27F00DB11D18
:10148000639FAA27F00DB11DAA1F649F6627B00DA8
:10149000A11D661F829F2227B00DA11D621F739F91
:1014A000B00DA11D621F839FA00D611D221F749F9F
:1014B0003327A00D611D231F849F600D211D822FE6
:1014C000762F6A2F11249F5750409AF0F1F088230D
:1014D0004AF0EE0FFF1FBB1F661F771F881F91503A
:1014E0005040A9F79E3F510580F00C94C9090C9417
:1014F000140A5F3FE4F3983ED4F386957795679599
:10150000B795F795E7959F5FC1F7FE2B880F911D63
:101510009695879597F908950E94A509880B990BD0
:101520000895A1E21A2EAA1BBB1BFD010DC0AA1F24
:10153000BB1FEE1FFF1FA217B307E407F50720F03C
:10154000A21BB30BE40BF50B661F771F881F991FB7
:101550001A9469F760957095809590959B01AC0100
:10156000BD01CF0108950E94C40AA59F900DB49FAC
:10157000900DA49F800D911D11240895EE0FFF1F63
:101580000590F491E02D0994A29FB001B39FC00192
:10159000A39F700D811D1124911DB29F700D811D9F
:1015A0001124911D0895F894FFCFFF000000003E24
:1015B000046902970296026E616E00696E66006FA2
:1015C0007666002056656869636C652020537065F7
:1015D000656420002020204D6561737572656D651E
:1015E0006E74202000446973742E20696E20636D30
:1015F0002000202020005370656564204B6D2F482B
:041600007220000054
:107E0000112484B714BE81FFF0D085E080938100F7
:107E100082E08093C00088E18093C10086E0809377
:107E2000C20080E18093C4008EE0C9D0259A86E02C
:107E300020E33CEF91E0309385002093840096BBD3
:107E4000B09BFECF1D9AA8958150A9F7CC24DD24C4
:107E500088248394B5E0AB2EA1E19A2EF3E0BF2EE7
:107E6000A2D0813461F49FD0082FAFD0023811F036
:107E7000013811F484E001C083E08DD089C08234E0
:107E800011F484E103C0853419F485E0A6D080C0E4
:107E9000853579F488D0E82EFF2485D0082F10E0AE
:107EA000102F00270E291F29000F111F8ED06801E7
:107EB0006FC0863521F484E090D080E0DECF843638
:107EC00009F040C070D06FD0082F6DD080E0C81688
:107ED00080E7D80618F4F601B7BEE895C0E0D1E017
:107EE00062D089930C17E1F7F0E0CF16F0E7DF06D8
:107EF00018F0F601B7BEE89568D007B600FCFDCFD4
:107F0000A601A0E0B1E02C9130E011968C91119780
:107F100090E0982F8827822B932B1296FA010C0160
:107F200087BEE89511244E5F5F4FF1E0A038BF0790
:107F300051F7F601A7BEE89507B600FCFDCF97BE46
:107F4000E89526C08437B1F42ED02DD0F82E2BD052
:107F50003CD0F601EF2C8F010F5F1F4F84911BD097
:107F6000EA94F801C1F70894C11CD11CFA94CF0C13
:107F7000D11C0EC0853739F428D08EE10CD085E9AC
:107F80000AD08FE07ACF813511F488E018D01DD067
:107F900080E101D065CF982F8091C00085FFFCCF94
:107FA0009093C60008958091C00087FFFCCF809118
:107FB000C00084FD01C0A8958091C6000895E0E648
:107FC000F0E098E1908380830895EDDF803219F02E
:107FD00088E0F5DFFFCF84E1DECF1F93182FE3DFCA
:107FE0001150E9F7F2DF1F91089580E0E8DFEE27F6
:047FF000FF270994CA
:027FFE00040479
:00000001FF
