:100000000C94A4000C94CC000C94CC000C942A0703
:100010000C942A070C942A070C94CC000C94CC0066
:100020000C94CC000C94CC000C94CC000C94CC0020
:100030000C94CC000C94CC000C94CC000C94CC0010
:100040000C9488060C94CC000C94F8060C94D20600
:100050000C94CC000C94CC000C94CC000C94CC00F0
:100060000C94CC000C94CC0007634236B79BD8A705
:100070001A39685618AEBAAB558C1D3CB7CC5763CD
:10008000BD6DEDFD753EF6177231BF000000803F7B
:1000900008000000BE922449123EABAAAA2ABECD97
:1000A000CCCC4C3E00000080BEABAAAAAA3E000009
:1000B0000000BF000000803F000000000008417801
:1000C000D3BB4387D1133D190E3CC3BD4282AD2B38
:1000D0003E68EC8276BED98FE1A93E4C80EFFFBE30
:1000E00001C4FF7F3F00000000000000000024006A
:1000F00027002A0000000008000201000003040796
:1001000000000000000000000000000023002600A6
:10011000290000000000250028002B00040404042E
:1001200004040404020202020202030303030303A1
:10013000010204081020408001020408102001027E
:1001400004081020A207000E11241FBECFEFD8E034
:10015000DEBFCDBF24E0A2EEB2E001C01D92A53308
:10016000B207E1F712E0A0E0B1E0EEE1F9E202C08F
:1001700005900D92A23EB107D9F710E0C3EAD0E096
:1001800004C02197FE010E948A12C23AD107C9F722
:100190000E94A8080C9482140C940000CF92DF9265
:1001A000EF92FF92CF93DF93B091D903A0E081113A
:1001B000AB2F8091DA0390E0880F991FAC01485F64
:1001C0005E4FC090DF03D090E003E090E103F09039
:1001D000E20330E020E0FA01C591D491E881B90151
:1001E00090E080E0EB23EA130AC02F5F3F4F6C15CD
:1001F0007D058E059F0578F36FEF7FEFCB01DF91D3
:10020000CF91FF90EF90DF90CF900895833081F0F1
:1002100028F4813099F08230A9F008958730A9F050
:100220008830C9F08430B1F4809180008F7D03C0A4
:10023000809180008F7780938000089584B58F77B8
:1002400084BD089584B58F7DFBCF8091B0008F77FA
:100250008093B00008958091B0008F7DF9CF1F93F7
:10026000CF93DF93282F30E0F901EC50FF4F8491BA
:10027000F901E05DFE4FD491F901E45EFE4FC491B7
:10028000CC23A9F0162F81110E940601EC2FF0E07B
:10029000EE0FFF1FEE5EFE4FA591B4918FB7F8945D
:1002A000EC91111108C0D095DE23DC938FBFDF9154
:1002B000CF911F910895DE2BF8CFCF93DF9390E07D
:1002C000FC01E05DFE4F2491845E9E4FFC01849111
:1002D0008823C9F090E0880F991FFC01E651FF4F79
:1002E000A591B491FC01EE5EFE4FC591D4916111D0
:1002F0000DC09FB7F8948C91209582238C938881B0
:10030000282328839FBFDF91CF910895623051F455
:100310009FB7F8943C91822F809583238C93E8813A
:100320002E2BEFCF8FB7F894EC912E2B2C938FBF01
:10033000EACF8E3008F08E508770806480937C0006
:1003400080917A00806480937A0080917A0086FDA3
:10035000FCCF809178009091790008953FB7F89490
:100360008091310390913203A0913303B091340313
:1003700026B5A89B05C02F3F19F00196A11DB11D00
:100380003FBFBA2FA92F982F8827BC01CD01620F3C
:10039000711D811D911D42E0660F771F881F991FF7
:1003A0004A95D1F708958F929F92AF92BF92CF92C4
:1003B000DF92EF92FF924B015C010E94AE016B0154
:1003C0007C010E94AE016C197D098E099F09683E6F
:1003D000734081059105A8F321E0821A9108A108D4
:1003E000B10888EEC80E83E0D81EE11CF11C811410
:1003F0009104A104B10429F7FF90EF90DF90CF9012
:10040000BF90AF909F908F9008952FB7F894609110
:100410002D0370912E0380912F03909130032FBFF5
:100420000895AF92BF92CF92DF92EF92FF920F9317
:100430001F93CF93DF936C017B018B01040F151F7A
:10044000EB015E01AE18BF08C017D10759F06991E2
:10045000D601ED91FC910190F081E02DC601099546
:10046000892B79F7C501DF91CF911F910F91FF90F3
:10047000EF90DF90CF90BF90AF900895FC01538D27
:10048000448D252F30E0842F90E0821B930B54176E
:1004900010F0CF96089501970895FC01918D828DFB
:1004A000981761F0A28DAE0FBF2FB11D5D968C9194
:1004B000928D9F5F9F73928F90E008958FEF9FEFD3
:1004C0000895FC01918D828D981731F0828DE80F8F
:1004D000F11D858D90E008958FEF9FEF0895FC0149
:1004E000918D228D892F90E0805C9F4F821B910916
:1004F0008F739927089585E393E00E946F0221E0AE
:10050000892B09F420E0822F089580E090E0892B68
:1005100029F00E947B0281110C9400000895FC01D7
:10052000A48DA80FB92FB11DA35ABF4F2C91848D54
:1005300090E001968F739927848FA689B7892C93B1
:10054000A089B1898C91837080648C93938D848D04
:10055000981306C00288F389E02D80818F7D808307
:100560000895EF92FF920F931F93CF93DF93EC01C7
:1005700081E0888F9B8D8C8D98131AC0E889F9894A
:10058000808185FF15C09FB7F894EE89FF8960834D
:10059000E889F98980818370806480839FBF81E0CE
:1005A00090E0DF91CF911F910F91FF90EF90089510
:1005B000F62E0B8D10E00F5F1F4F0F731127E02EEB
:1005C0008C8D8E110CC00FB607FCFACFE889F98923
:1005D000808185FFF5CFCE010E948F02F1CFEB8D98
:1005E000EC0FFD2FF11DE35AFF4FF0829FB7F894F7
:1005F0000B8FEA89FB8980818062CFCFCF93DF9315
:10060000EC01888D8823B9F0AA89BB89E889F9892A
:100610008C9185FD03C0808186FD0DC00FB607FC5F
:10062000F7CF8C9185FFF2CF808185FFEDCFCE0192
:100630000E948F02E9CFDF91CF910895209124038A
:10064000309125032817390771F490912203809186
:100650002303981741F0E0912203F0E0EE51FD4FA3
:10066000808190E008958FEF9FEF08950895EF92B5
:10067000FF920F931F93CF93DF93DC015C96ED9075
:10068000FC905D97E114F10479F481E090E0139619
:100690009C938E93129790E080E0DF91CF911F9111
:1006A0000F91FF90EF9008955196ED91FC91529724
:1006B00050968C915097982F90950FB75E962C91ED
:1006C0005E97122F127021FD6095F89420811123FE
:1006D00019F1282B2083E7012197F1F728E0462F15
:1006E00050E0308160FF1AC0382B3083E70121973A
:1006F000F1F7BA0175956795215089F7112381F0BB
:100700008081892380830FBF5C968D919C91019796
:10071000F1F781E090E0C1CF2923DCCF3923E5CF89
:100720009081892BEFCF2091240330912503281746
:10073000390761F4809123032091220390E0805CCB
:100740009F4F821B91098F739927089590E080E055
:100750000895209124033091250328173907B9F40F
:100760009091220380912303981789F0E09122034E
:10077000F0E0EE51FD4F80812091220330E02F5FA9
:100780003F4F2F7333272093220390E008958FEF7C
:100790009FEF089590E080E00895FB010190002014
:1007A000E9F73197AF01461B570BDC01ED91FC9146
:1007B0000280F381E02D0994CF93DF93FC01448103
:1007C00055816081718182E194E00E941102EC0107
:1007D0006AE271E082E194E00E94CD038C0F9D1FDC
:1007E000DF91CF9108958F929F92AF92BF920F9316
:1007F0001F93CF93DF93CDB7DEB7A1970FB6F894D1
:10080000DEBF0FBECDBF19A2423008F44AE08E0110
:100810000F5D1F4F842E912CB12CA12CA5019401AA
:100820000E946812E62FB901CA01EA3004F5E05DC2
:10083000D801EE938D01232B242B252B79F790E003
:1008400080E0109729F0BD0185E393E00E94CD037D
:10085000A1960FB6F894DEBF0FBECDBFDF91CF914A
:100860001F910F91BF90AF909F908F900895E95C7A
:10087000DFCFCF92DF92EF92FF92CF93DF936B01A6
:100880007C016DE285E393E00E94B102EC016627F2
:100890007727CB016C197D098E099F094AE00E94D8
:1008A000F3038C0F9D1FDF91CF91FF90EF90DF90AE
:1008B000CF900895BC01990F880B990B97FD0C946C
:1008C00039044AE00C94F303BC0185E393E00C94F3
:1008D000CD034F925F926F927F928F929F92AF92D1
:1008E000BF92CF92DF92EF92FF920F931F93CF931D
:1008F0006B017C01742EAC019B010E942E116DE2F4
:1009000071E0811126C046015701E894B7F82FEF36
:100910003FEF4FE75FE7C501B4010E942E1181113F
:100920000CC02FEF3FEF4FE75FE7C501B4010E9416
:10093000690E61E371E0181664F02FEF3FEF4FE7A7
:100940005FE4C701B6010E94D9101816ACF465E344
:1009500071E085E393E0CF911F910F91FF90EF90AD
:10096000DF90CF90BF90AF909F908F907F906F90CF
:100970005F904F900C94CD032FEF3FEF4FE75FEC6C
:10098000C701B6010E94690E87FDE1CF20E030E08B
:10099000A901C701B6010E94690E10E000E087FFBF
:1009A0000AC06DE285E393E00E94B1028C01F7FA80
:1009B000F094F7F8F094C0E060E070E080E09FE32E
:1009C0007C1641F020E030E040E251E40E9431101A
:1009D000CF5FF6CFA70196010E94C50F2B013C0106
:1009E0000E94AA104B015C014AE00E94F3037C01C3
:1009F000E00EF11ECC23C1F1C501B4010E946E0EC0
:100A00009B01AC01C301B2010E94C40F4B015C0108
:100A10006EE285E393E00E94B102E80EF91EC15038
:100A200018F120E030E040E251E4C501B4010E9439
:100A3000CF0E2B013C010E94AA104B01B12CA12C1E
:100A40004AE0C501B4010E94F303E80EF91EC50196
:100A5000B4010E946E0E9B01AC01C301B2010E9461
:100A6000C40F4B015C01DBCFC701CF911F910F91E8
:100A7000FF90EF90DF90CF90BF90AF909F908F90BE
:100A80007F906F905F904F9008950F931F93CF9337
:100A9000DF93EC0188819981009759F02A813B818D
:100AA0002617370730F081E0DF91CF911F910F912A
:100AB00008958B016F5F7F4F0E94B513009759F027
:100AC000998388831B830A832C813D81232B59F7CB
:100AD000FC011082E8CF80E0E7CFEF92FF920F9306
:100AE0001F93CF93DF936115710541F480E0DF918F
:100AF000CF911F910F91FF90EF90089541155105EF
:100B0000B1F07B01EC010C811D81040F151FB801B0
:100B10000E944505882351F3288139818C819D816C
:100B2000B701820F931F0E947B141D830C8381E009
:100B3000DECFCF93DF93EC0188819981009711F08C
:100B40000E942C13198218821D821C821B821A8219
:100B5000DF91CF910895CF93DF93EC01FB010190DA
:100B60000020E9F73197AF01461B570B0E946D0536
:100B7000811103C0CE010E949905CE01DF91CF9172
:100B80000895CF93DF93EC01FB014481558160818F
:100B900071810E946D05811103C0CE010E949905EB
:100BA000CE01DF91CF910895EF92FF920F931F93A3
:100BB000CF93DF93EC017B018A01BA010E944505C6
:100BC00081110BC0CE010E949905CE01DF91CF911A
:100BD0001F910F91FF90EF9008951D830C83B70133
:100BE000888199810E947B14F0CFFB01DC01119672
:100BF0001C921E9213961C921E92129715961C928E
:100C00001E9214978617970749F0608171816115CC
:100C1000710521F0448155810C94D4050895FC019F
:100C2000118210821382128215821482FB010190BC
:100C30000020E9F73197AF01461B570B0C94D40500
:100C4000CF92DF92EF92FF920F931F93CF93DF9398
:100C500000D0CDB7DEB78C017B0189E391E00E9423
:100C60006404F701448155816081718185E393E0DB
:100C70000E94110269E471E085E393E00E94CD03D4
:100C80006AE271E085E393E00E94CD036CE271E0DB
:100C9000C8010E940F06C7010E94DC030E940502E2
:100CA0006B017C01F8EECF0EF3E0DF1EE11CF11CBE
:100CB0000E9405026C157D058E059F05A8F482E152
:100CC00094E00E949303892B99F382E194E00E94BF
:100CD000A90389831A8241E050E0BE016F5F7F4F14
:100CE000C8010E946D05EBCFC8010F900F90DF91F6
:100CF000CF911F910F91FF90EF90DF90CF900895CB
:100D0000FC0180819181009711F00C942C130895BF
:100D10001F920F920FB60F9211242F933F938F9330
:100D20009F93AF93BF9380912D0390912E03A09139
:100D30002F03B091300330912C0323E0230F2D3784
:100D400058F50196A11DB11D20932C0380932D030E
:100D500090932E03A0932F03B0933003809131031F
:100D600090913203A0913303B09134030196A11DF9
:100D7000B11D8093310390933203A0933303B0935A
:100D80003403BF91AF919F918F913F912F910F901D
:100D90000FBE0F901F90189526E8230F0296A11DF5
:100DA000B11DD2CF1F920F920FB60F9211242F9325
:100DB0003F934F935F936F937F938F939F93AF93E3
:100DC000BF93EF93FF9385E393E00E948F02FF911F
:100DD000EF91BF91AF919F918F917F916F915F91B3
:100DE0004F913F912F910F900FBE0F901F9018952C
:100DF0001F920F920FB60F9211242F938F939F93F0
:100E0000EF93FF93E0914503F09146038081E091D9
:100E10004B03F0914C0382FD1BC0908180914E03E7
:100E20008F5F8F7320914F03821741F0E0914E0343
:100E3000F0E0EB5CFC4F958F80934E03FF91EF91B8
:100E40009F918F912F910F900FBE0F901F9018952B
:100E50008081F4CF1F920F920FB60F9211242F931F
:100E60003F934F935F936F937F938F939F93AF9332
:100E7000BF93EF93FF93E0912403F0912503309704
:100E800049F0A685B7858585968D91FF14C09C9104
:100E90008923A1F4FF91EF91BF91AF919F918F9121
:100EA0007F916F915F914F913F912F910F900FBE66
:100EB0000F901F9018959C91892361F7A389B4899D
:100EC0009C918589809589238C9386899789019740
:100ED000F1F7608D718DA685B785558538E020E0E6
:100EE000CB010197F1F7822F90E095958795282FF8
:100EF0004C91452309F02068315091F7868D81FD92
:100F000020958091230390E001968F73992730916B
:100F10002203381799F0A0912303B0E0AE51BD4FE2
:100F20002C9380932303828D938D0197F1F7A389EE
:100F3000B4898C919589892B8C93ACCF868D8160F7
:100F4000868FF1CF109238031092370388EE93E02A
:100F5000A0E0B0E08093390390933A03A0933B0361
:100F6000B0933C032AE031E03093360320933503FD
:100F700025EC30E0309342032093410324EC30E031
:100F8000309344032093430320EC30E03093460336
:100F90002093450321EC30E030934803209347032E
:100FA00022EC30E030934A032093490326EC30E0F2
:100FB00030934C0320934B0310924E0310924F0337
:100FC00010925003109251031092150410921404C1
:100FD0008093160490931704A0931804B0931904F7
:100FE0008CE191E0909313048093120410922904F1
:100FF0001092280410922B0410922A0410922D04AF
:1010000010922C0410922F0410922E046091300440
:101010006E7F6D7F609330046695617081E0682714
:101020008BE00E942F0161E08BE00E945D01EBE309
:10103000F1E0E491E0932204E7E2F1E0E491F0E0F2
:10104000EE0FFF1FEE5EFE4F859194919093240466
:101050008093230460E08AE00E945D018091300467
:1010600081FD04C061E08AE00E942F018AE0809344
:101070001E04EAE3F1E0E491E0931F04E6E2F1E00C
:10108000E491F0E0EE0FFF1FE85FFE4F8591949131
:1010900090932104809320046FE471E08CE094E04D
:1010A0000E940F0665E571E086E094E00E940F065D
:1010B0006FE571E080E094E00E940F0660E771E068
:1010C0008AEF93E00E940F0663E871E084EF93E0FB
:1010D0000E940F0666E871E08EEE93E00E940F0614
:1010E0008FE08093E5038FE892E4A9E9B2E480936E
:1010F000EA039093EB03A093EC03B093ED0380E03D
:1011000090E0A0E2B1E48093E6039093E703A0931C
:10111000E803B093E90382E08093D70386E18093EC
:10112000D803E2E3F1E0E491E093D903EEE1F1E0EA
:10113000E491E093DA0380E89EE3A0E0B0E08093DE
:10114000DF039093E003A093E103B093E2030895DB
:10115000CF93DF93CDB7DEB7C855D1400FB6F89423
:10116000DEBF0FBECDBF789484B5826084BD84B5E8
:10117000816084BD85B5826085BD85B5816085BD92
:1011800080916E00816080936E001092810080914A
:1011900081008260809381008091810081608093D2
:1011A0008100809180008160809380008091B100F7
:1011B00084608093B1008091B00081608093B00022
:1011C00080917A00846080937A0080917A008260B6
:1011D00080937A0080917A00816080937A00809178
:1011E0007A00806880937A001092C100E0914503F4
:1011F000F091460382E08083E0914103F091420345
:101200001082E0914303F09144038FEC80831092AD
:101210004D03E0914903F0914A0386E08083E09119
:101220004703F0914803808180618083E091470308
:10123000F0914803808188608083E0914703F091BA
:101240004803808180688083E0914703F0914803E0
:1012500080818F7D808310922D0410922C04109237
:101260002B0410922A0410922904109228048FE172
:1012700090E090932F0480932E0490911E04963159
:1012800008F047C021E030E030932904209328047F
:101290002DE130E030932B0420932A042DE030E040
:1012A00030932D0420932C042091680084E0983022
:1012B00048F031E09E3008F430E081E001C0880F52
:1012C0003A95EAF7822B809368002DE630E098305B
:1012D00050F02BE630E09E3030F02CE630E09631D6
:1012E00010F030E020E03093260420932504292FCD
:1012F00030E0983008F011C381E001C0880F9A9562
:10130000EAF78093270480912E0490912F0401978F
:10131000F1F780912C0490912D04892B49F1E091F3
:101320002403F091250324E0E231F20709F130971C
:1013300039F0A389B4899C918589809589238C9300
:10134000809130048E7F809330041092230310929A
:10135000220382E194E09093250380932403E0919B
:101360002504F0912604808190912704892B8083A5
:1013700060E08AE00E945D0162E08091D7030E94F4
:101380005D010E940502605D7740810991096093CB
:10139000DB037093DC038093DD039093DE0387E32C
:1013A0008093E4038E010F5B1E4F6DE871E0C8016E
:1013B0000E940F06B801AE014F5F5F4F7A01CA016C
:1013C0000E942006C7010E948006C8010E94800674
:1013D00064E971E0C8010E940F06B801C7010E94CC
:1013E0002006C7010E948006C8010E94800660EAAC
:1013F00071E0CE01895B9E4F0E940F066CE074E0A5
:10140000CE01895B9E4F0E94C1056CE972E00E948B
:10141000AB0566E074E00E94C1056EE972E00E94CF
:10142000AB05BC01C8010E94F505B801C7010E94C7
:101430002006C7010E948006C8010E948006CE01D6
:10144000895B9E4F0E94800661E087E00E945D01FB
:1014500061E086E00E945D0161E085E00E945D013F
:1014600060E080E10E945D0168EE73E080E090E062
:101470000E94D30160E0662E60E0762E61E086E097
:101480000E942F0160E087E00E942F0160E085E06C
:101490000E942F010E9405028090DB039090DC03E4
:1014A000A090DD03B090DE039B01AC01281939093F
:1014B0004A095B0949015A0130ED831637E093066A
:1014C000A104B10408F036C28091E3038111F3C294
:1014D000812C912C40ECA42E4FE7B42E8BEA91E0A6
:1014E0000E94640420E030E044E052E4C501B4010D
:1014F0000E94D91087FD0DC087ED91E00E94640421
:1015000042E0C501B4010E94690484EF91E00E94A9
:101510006404EEEFF0E08491EAE3F1E0C490E6E2E7
:10152000F1E0D490DD2009F453C381110E9406013B
:10153000ED2DF0E0EE0FFF1FE85FFE4FA591B49197
:101540008C91C82291E080E009F490E090932A0306
:1015500080932B0380E10E9499016C0188EF91E058
:101560000E946404C6010E945A0480912A0390914B
:101570002B03019709F02FC361E087E00E942F0140
:1015800060E086E00E942F0186E192E00E94640400
:1015900068EE73E080E090E00E94D3018EE00E944C
:1015A000990190932903809328030E945A048BE2A7
:1015B00091E00E946404809128039091290380396E
:1015C000914074F061E087E00E942F0160E086E0C6
:1015D0000E942F0164E670E080E090E00E94D30159
:1015E0008091E5030E949901BC01990F880B990B2A
:1015F0000E94700E9B01AC0160E070EC8FE794E4F8
:101600000E94311020E030E040E85FE30E94C40F08
:101610002091E6033091E7034091E8035091E903FC
:101620000E94CF0E2091EA033091EB034091EC032E
:101630005091ED030E9431102EED37E341E350EC61
:101640000E94DE1022E434E349EE52E40E94CF0E01
:1016500020E030E048E454E40E94D910181684F4E5
:101660008CE392E00E94640461E087E00E942F0115
:1016700060E086E00E942F0161E085E00E942F017A
:10168000C501B4010E94A310CB017093270360939E
:101690002603F801118210821382128215821482AD
:1016A0004AE0B7010E94340EF70101900020E9F7EB
:1016B0003197AF014E195F09B701C8010E94D405E7
:1016C00067E672E0C7010E940F0660E074E0C701A0
:1016D0000E94C1056CE772E00E94AB056EEE73E0FC
:1016E0000E94C1056AE772E00E94AB05B8010E9442
:1016F000C105BC01CE018D5A9E4F0E94F505C70160
:101700000E948006C8010E9480066EE772E0C80150
:101710000E940F06B801C7010E942006C7010E945F
:101720008006C8010E9480066AE872E0CE01895BEB
:101730009E4F0E940F066AEF73E0CE01895B9E4FB9
:101740000E94C10560EA72E00E94AB0564EF73E09D
:101750000E94C105BC01C8010E94F505B801C7017E
:101760000E942006C7010E948006C8010E948006D0
:10177000CE01895B9E4F0E948006C95ADE4F888148
:101780009981C755D140C95BDE4F19821882C75471
:10179000D140C75BDE4F19821882C954D140C55B66
:1017A000DE4F19821882CB54D1404AE0B70104962B
:1017B0000E943F0EF70101900020E9F73197AF0139
:1017C0004E195F09B701CE01895B9E4F0E94D40577
:1017D00063EA72E0CE01835B9E4F0E940F06BE015A
:1017E000695B7E4FCE01835B9E4F0E94C105BC01A9
:1017F000C8010E94F505B801C7010E942006C70173
:101800000E948006C8010E948006CE01835B9E4F25
:101810000E948006CE01895B9E4F0E9480068091C7
:10182000260390912703899764F061EB72E085E3CA
:1018300093E00E94CD036AE271E085E393E00E94A9
:10184000CD030E94050260931A0470931B048093D9
:101850001C0490931D0482E194E00E94A90397FF69
:10186000CBC10E94050220911A0430911B044091C3
:101870001C0450911D04621B730B840B950B20916B
:1018800016043091170440911804509119046217FE
:10189000730784079507F8F2CE018D5A9E4F0E9478
:1018A000DC0381EC92E00E94640460912603709155
:1018B0002703072E000C880B990B97FF99C10E94F4
:1018C00039046AE271E085E393E00E94CD0364EDA0
:1018D00072E0C8010E940F06B801C7010E942006ED
:1018E000C7010E948006C8010E94800660E177E27D
:1018F00080E090E00E94D301CE018D5A9E4F0E945D
:1019000080066114710409F4B9CD0E947B0288231A
:1019100009F4B4CD0E940000B1CD9E3040F42850AF
:10192000310981E001C0880F2A95EAF7EACC2E50F0
:101930003109F7CF6093DB037093DC038093DD0301
:101940009093DE031092D6031092D5031092D40325
:101950001092D3031092D20362E08091D7030E94C9
:101960005D0161E070E080E090E00E94D30161E001
:101970008091D7030E945D0160E08091D7030E94AF
:101980002F018091D8038551823018F58BE291E1C7
:101990000197F1F762E08091D7030E945D01809189
:1019A000E40390E08230910538F0880F991F880F8A
:1019B000991F05970197F1F7F89480E00E94CE00F7
:1019C0006F3F7F4F8F4F9F4F59F41092E3037894EE
:1019D0007FCD64E170E080E090E00E94D301DACF37
:1019E00081E00E94CE006F3F7F4F8F4F9F4F69F382
:1019F0005701670180E00E94CE00F6016083718389
:101A00008283938381E00E94CE00F6016483758314
:101A100086839783F8E0CF0ED11C0C151D0551F776
:101A2000789490E080E0F5012080318042805380FE
:101A30004481558166817781FFEF2F163F064F065F
:101A40005F0631F04F3F2FEF52076207720719F41C
:101A50001092E3033DCDFC0133E0F595E7953A950F
:101A6000E1F7EE52FC4F2081220F24163506460680
:101A7000570680F12083019638E0A30EB11C88320E
:101A8000910589F64091D6032091D2038091D3032A
:101A9000280F3327331F8091D403280F311D8091E5
:101AA000D503820F932F911D99274817190681F6A8
:101AB00081E08093E3038091D8038C3009F463C004
:101AC00058F48B3011F1812C912C90ECA92E9FE7CA
:101AD000B92E45C02160CECF85518230A0F7D0907D
:101AE000D4036D2D70E0762F662766277F7780916F
:101AF000D503682B90E080E00E946E0E2DEC3CEC4C
:101B00004CEC5DE30E94CF0E5AC06091D40370E0AC
:101B100090E080E00E946E0E4B015C01D090D503F6
:101B2000D7FE0AC0AC019B0160E070E080E89FEB4B
:101B30000E94C40F4B015C016D2D6F7070E090E04E
:101B400080E00E94700E2DEC3CEC4CEC5DE30E94BA
:101B5000CF0EA50194010E94C50F4B015C01A501A8
:101B60009401C501B4010E942E118111B7CC82EC01
:101B700091E00E94640442E0C501B4010E9469043E
:101B800080ED91E0ADCCD090D4036D2D70E090E06D
:101B900080E00E946E0E4B015C016091D5036F7076
:101BA00070E090E080E00E94700E2DEC3CEC4CEC7C
:101BB0005DE30E94CF0EA50194010E94C50F4B0169
:101BC0005C01D7FECCCFB7FAB094B7F8B094C7CFCA
:101BD00090E080E0BBCC60E087E00E942F0161E0F4
:101BE00086E00E942F018EE292E00E946404D6CC2F
:101BF0004AE00E94F30365CECE9709F022CE4CCE88
:101C00008EEE93E00E94800684EF93E00E948006AF
:101C10008AEF93E00E94800680E094E00E948006B4
:101C200086E094E00E9480068CE094E00E948006AA
:101C30008CE191E09093130480931204809124032B
:101C4000909125038251944071F4E0912504F09124
:101C500026049081809127048095892380831092A7
:101C60002503109224030895BB274A3031F49923A9
:101C700022F4BDE2909581959F4F0C94400EBB27B6
:101C8000FB015527AA27880F991FAA1FA41710F038
:101C9000A41B83955051B9F7A05DAA3308F0A95D44
:101CA000A193009779F7B111B1931192CB010C94E4
:101CB000590EDC01FC01672F71917723E1F7329710
:101CC00004C07C916D9370836291AE17BF07C8F317
:101CD00008950E94AB0E08F481E00895E89409C0CD
:101CE00097FB3EF490958095709561957F4F8F4F4F
:101CF0009F4F9923A9F0F92F96E9BB279395F69565
:101D0000879577956795B795F111F8CFFAF4BB0FE2
:101D100011F460FF1BC06F5F7F4F8F4F9F4F16C046
:101D2000882311F096E911C0772321F09EE8872FD0
:101D3000762F05C0662371F096E8862F70E060E08C
:101D40002AF09A95660F771F881FDAF7880F969505
:101D5000879597F90895990F0008550FAA0BE0E8A9
:101D6000FEEF16161706E807F907C0F0121613065D
:101D7000E407F50798F0621B730B840B950B39F49D
:101D80000A2661F0232B242B252B21F408950A2603
:101D900009F4A140A6958FEF811D811D08950E9431
:101DA000E20E0C94530F0E94450F38F00E944C0F26
:101DB00020F0952311F00C943C0F0C94420F112449
:101DC0000C94870F0E94640F70F3959FC1F3950FD9
:101DD00050E0551F629FF001729FBB27F00DB11DAF
:101DE000639FAA27F00DB11DAA1F649F6627B00D3F
:101DF000A11D661F829F2227B00DA11D621F739F28
:101E0000B00DA11D621F839FA00D611D221F749F35
:101E10003327A00D611D231F849F600D211D822F7C
:101E2000762F6A2F11249F5750409AF0F1F08823A3
:101E30004AF0EE0FFF1FBB1F661F771F881F9150D0
:101E40005040A9F79E3F510580F00C943C0F0C9434
:101E5000870F5F3FE4F3983ED4F3869577956795B7
:101E6000B795F795E7959F5FC1F7FE2B880F911DFA
:101E70009695879597F9089597F99F6780E870E0A0
:101E800060E008959FEF80EC089500240A941616F0
:101E9000170618060906089500240A941216130658
:101EA000140605060895092E0394000C11F48823E6
:101EB00052F0BB0F40F4BF2B11F460FF04C06F5F02
:101EC0007F4F8F4F9F4F089557FD9058440F551FD8
:101ED00059F05F3F71F04795880F97FB991F61F0AC
:101EE0009F3F79F087950895121613061406551F23
:101EF000F2CF4695F1DF08C0161617061806991F8F
:101F0000F1CF86957105610508940895E894BB2783
:101F100066277727CB0197F908952F923F924F922A
:101F20005F926F927F928F929F92AF92BF92CF9269
:101F3000DF92EF92FF920F931F93CF93DF93CDB772
:101F4000DEB7CA1BDB0B0FB6F894DEBF0FBECDBFEA
:101F500009942A88398848885F846E847D848C84BB
:101F60009B84AA84B984C884DF80EE80FD800C81C4
:101F70001B81AA81B981CE0FD11D0FB6F894DEBFA7
:101F80000FBECDBFED0108955058BB27AA270E9470
:101F9000DC0F0C94530F0E94450F38F00E944C0F39
:101FA00020F039F49F3F19F426F40C94420F0EF4FC
:101FB000E095E7FB0C943C0FE92F0E94640F58F367
:101FC000BA17620773078407950720F079F4A6F51E
:101FD0000C94860F0EF4E0950B2EBA2FA02D0B015A
:101FE000B90190010C01CA01A0011124FF27591B5E
:101FF00099F0593F50F4503E68F11A16F040A22F64
:10200000232F342F4427585FF3CF469537952795D4
:10201000A795F0405395C9F77EF41F16BA0B620BD3
:10202000730B840BBAF09150A1F0FF0FBB1F661F1A
:10203000771F881FC2F70EC0BA0F621F731F841F5D
:1020400048F4879577956795B795F7959E3F08F083
:10205000B0CF9395880F08F09927EE0F9795879545
:1020600008950E9445100C94530F0E944C0F58F095
:102070000E94450F40F029F45F3F29F00C943C0F7B
:1020800051110C94870F0C94420F0E94640F68F357
:102090009923B1F3552391F3951B550BBB27AA2721
:1020A00062177307840738F09F5F5F4F220F331F5B
:1020B000441FAA1FA9F335D00E2E3AF0E0E832D023
:1020C00091505040E695001CCAF72BD0FE2F29D026
:1020D000660F771F881FBB1F261737074807AB07F8
:1020E000B0E809F0BB0B802DBF01FF2793585F4F6D
:1020F0003AF09E3F510578F00C943C0F0C94870FFA
:102100005F3FE4F3983ED4F3869577956795B7954E
:10211000F7959F5FC9F7880F911D9695879597F959
:102120000895E1E0660F771F881FBB1F62177307D2
:102130008407BA0720F0621B730B840BBA0BEE1FE7
:1021400088F7E09508950E94AA106894B1110C9444
:10215000870F08950E946C0F88F09F5798F0B92F51
:102160009927B751B0F0E1F0660F771F881F991FCC
:102170001AF0BA95C9F714C0B13091F00E94860FD9
:10218000B1E008950C94860F672F782F8827B85FE9
:1021900039F0B93FCCF3869577956795B395D9F724
:1021A0003EF490958095709561957F4F8F4F9F4F2E
:1021B00008950E94AB0E08F48FEF0895FA01EE0F18
:1021C000FF1F309621053105A1F16115710561F4FC
:1021D0008038BFE39B0749F168949038810561F02E
:1021E0008038BFEF9B0741F099234AF5FF3FE10597
:1021F0003105210519F1E8940894E795D901AA233E
:1022000029F4AB2FBE2FF85FD0F310C0FF5F70F43E
:10221000A695E0F7F73950F019F0FF3A38F49F77B8
:102220009F930DD00F9007FC9058089546F00C94A2
:10223000420F60E070E080E89FE308954FE79F77EA
:102240005F934F933F932F930E94DE112F913F9105
:102250004F915F910E94CF0E0C943B110E94AB0EE8
:10226000880B990B089529F416F00C943C0F0C94EC
:10227000860F0C94420F0E946C0FA8F39638A0F7BB
:1022800007F80F92E8942BE33AEA48EB5FE70E94E5
:10229000E50E0F920F920F924DB75EB70F920E940C
:1022A0002612E8E6F0E00E946D114F915F91EF91E8
:1022B000FF91E595EE1FFF1F49F0FE57E0684427A8
:1022C000EE0F441FFA95E1F74195550B0E94A011BE
:1022D0000F9007FE0C9494110895DF93CF931F93F2
:1022E0000F93FF92EF92DF927B018C01689406C0FE
:1022F000DA2EEF010E94E20EFE01E894A5912591ED
:10230000359145915591A6F3EF010E94DC0FFE0136
:102310009701A801DA9469F7DF90EF90FF900F9191
:102320001F91CF91DF9108959B01AC0160E070E0B7
:1023300080E89FE30C9431100C943C0F0C945A12DB
:102340000E946C0FD8F39923C9F3940F511DA3F386
:102350009150504094F059F0882332F0660F771F67
:10236000881F91505040C1F79E3F51052CF7880FB0
:10237000911D9695879597F908955F3FACF0983E2B
:102380009CF0BB27869577956795B79508F4B16063
:102390009395C1F7BB0F58F711F460FFE8CF6F5F5B
:1023A0007F4F8F4F9F4FE3CF0C94870F16F00C9405
:1023B0005A120C94420F68940C943C0F0E946C0FBC
:1023C000A8F39923C1F3AEF3DF93CF931F930F9339
:1023D000FF92C92FDD2788232AF02197660F771FE8
:1023E000881FDAF720E030E040E85FEB9FE38839B0
:1023F00020F0803E38F021968F770E94C50FE0E9EB
:10240000F0E004C00E94C50FEDEBF0E00E946D11FA
:102410008B01BE01EC01FB2E6F5771097595771F7B
:10242000880B990B0E94700E28E132E741E35FE3CD
:102430000E94E20EAF2D9801AE01FF900F911F9107
:10244000CF91DF910E94DC0F0C94530FFA01DC0155
:10245000AA0FBB1F9B01AC01BF5728F422273327CB
:102460004427507820C0B75190F4AB2F00244695F4
:1024700037952795011CA395D2F3002071F0220F08
:10248000331F441FB395DAF30ED00C94C40F6130A0
:102490007105A0E88A07B94630F49B01AC016627B4
:1024A000772788279078309621F0208331834283E4
:1024B000538308959F3F31F0915020F4879577958D
:1024C0006795B795880F911D9695879597F908950B
:1024D000A1E21A2EAA1BBB1BFD010DC0AA1FBB1F28
:1024E000EE1FFF1FA217B307E407F50720F0A21B9A
:1024F000B30BE40BF50B661F771F881F991F1A9407
:1025000069F760957095809590959B01AC01BD0130
:10251000CF010895EE0FFF1F0590F491E02D09946F
:102520000F931F93CF93DF938230910510F482E0D5
:1025300090E0E0913304F091340430E020E0B0E02A
:10254000A0E0309799F42115310509F44AC0281B01
:10255000390B24303105D8F58A819B8161157105CD
:1025600089F1FB0193838283FE0111C04081518177
:102570000281138148175907E0F04817590799F469
:10258000109761F012960C93129713961C93329643
:10259000CF01DF91CF911F910F91089500933304E4
:1025A00010933404F4CF2115310551F0421753072D
:1025B00038F0A901DB019A01BD01DF01F801C1CFAB
:1025C000EF01F9CF9093340480933304CDCFFE0113
:1025D000E20FF31F819391932250310939832883AD
:1025E000D7CF2091310430913204232B41F4209134
:1025F0000201309103013093320420933104209181
:102600000001309101012115310541F42DB73EB78C
:102610004091040150910501241B350BE0913104D8
:10262000F0913204E217F307A0F42E1B3F0B28179A
:10263000390778F0AC014E5F5F4F2417350748F03B
:102640004E0F5F1F50933204409331048193919356
:102650009FCFF0E0E0E09CCFCF93DF930097E9F0CD
:10266000FC01329713821282A0913304B09134049A
:10267000ED0130E020E01097A1F420813181820F3C
:10268000931F20913104309132042817390709F043
:1026900061C0F0933204E0933104DF91CF9108954B
:1026A000EA01CE17DF07E8F54A815B819E014115FB
:1026B0005105B1F7E901FB83EA8349915991C40FB0
:1026C000D51FEC17FD0761F4808191810296840F7C
:1026D000951FE90199838883828193819B838A83F3
:1026E000F0E0E0E012968D919C9113970097B9F578
:1026F0002D913C911197CD010296820F931F20914D
:102700003104309132042817390739F6309751F5E2
:102710001092340410923304B0933204A093310425
:10272000BCCFD383C28340815181840F951FC817CA
:10273000D90761F44E5F5F4F88819981480F591F17
:10274000518340838A819B81938382832115310544
:1027500009F0B0CFF0933404E09333049ECFFD0131
:10276000DC01C0CF13821282D7CFB0E0A0E0EBEB48
:10277000F3E10C948F0F8C01009751F4CB010E9470
:1027800090128C01C801CDB7DEB7E0E10C94AB0F1D
:10279000FC01E60FF71F9C0122503109E217F307F5
:1027A00008F49DC0D901CD91DC911197C617D707C8
:1027B00098F0C530D10530F3CE01049786179707FE
:1027C00008F3C61BD70B2297C193D1936D937C93CB
:1027D000CF010E942C13D6CF5B01AC1ABD0A4C016D
:1027E0008C0E9D1EA0913304B0913404512C412CC9
:1027F000F12CE12C109731F5809131049091320445
:102800008815990509F05CC04616570608F058C0AF
:102810008091000190910101009741F48DB79EB71E
:102820004091040150910501841B950BE817F907AD
:1028300008F055C0F0933204E0933104F90171833C
:102840006083A0CF8D919C91119712966C901297F6
:1028500013967C901397A815B90559F56C0142E0C1
:10286000C40ED11CCA14DB0420F1AC014A195B0967
:10287000DA011296159780F0628273825183408349
:10288000D9016D937C93E114F10471F0D701139693
:10289000FC93EE93129776CF22968C0F9D1FF90131
:1028A00091838083F301EFCFF0933404E0933304FA
:1028B00069CF4816590608F42C017D01D3019ACF3F
:1028C000CB010E9490127C01009749F0AE01B80143
:1028D0000E947214C8010E942C13870153CF10E08C
:1028E00000E050CFFB01DC0102C001900D9241508D
:1028F0005040D8F70895FB01DC0101900D920020B3
:10290000E1F7089510E0C3EAD0E004C0FE010E94A0
:0E2910008A122196C43AD107C9F7F894FFCF76
:10291E0000003504800000000000B10211023E02EA
:10292E00FE026F024D026102000000003703110229
:10293E00CA0336039303A9031E030D0A006E616ECC
:10294E0000696E66006F766600415420436F6D6DB0
:10295E00616E64203D3D3E2000202020202000435B
:10296E006F64616B006C656D6C656D30363400574D
:10297E004B364854364150505543385A5641530001
:10298E006170692E7468696E67737065616B2E6312
:10299E006F6D003830006669656C64310041542BF0
:1029AE005253540041542B43574D4F44453D310033
:1029BE0041542B43574A41503D22006661696C6574
:1029CE006420746F20726561642044485420323252
:1029DE000A0054656D70657261747572653A2000F7
:1029EE00C2B043207E200054656D707261747572A2
:1029FE0065204C6576656C20526973696E6720742C
:102A0E006F3A2000C2B04300616E616C6F67652043
:102A1E002076616C756520666F72207669627261D0
:102A2E0074696F6E3A0073656E73696E6720736FAB
:102A3E006D6520566962726174696F6E0A004E6F21
:102A4E0020566962726174696F6E0A00446574651E
:102A5E006374696E672068696768206C6576656C5B
:102A6E00206F6620536D6F6B6520696E20746865EC
:102A7E0020526F6F6D0A00474554202F75706461A8
:102A8E0074653F6170695F6B65793D002600415446
:102A9E002B4349504D55583D310041542B4349501D
:102AAE0053544152543D302C22544350222C220078
:102ABE00222C0041542B43495053454E443D302C5B
:102ACE0000686967682074656D70726174757265EF
:102ADE000056616C756520746F2062652073656E9B
:102AEE00743A200041542B434950434C4F53453DBB
:022AFE003000A6
:00000001FF
