:100000000C94A4000C94CC000C94CC000C94850DA2
:100010000C94850D0C94850D0C94CC000C94CC00A4
:100020000C94CC000C94CC000C94CC000C94CC0020
:100030000C94CC000C94CC000C94CC000C94CC0010
:100040000C94E30C0C94CC000C94530D0C942D0DDB
:100050000C94CC000C94CC000C94CC000C94CC00F0
:100060000C94CC000C94CC0007634236B79BD8A705
:100070001A39685618AEBAAB558C1D3CB7CC5763CD
:10008000BD6DEDFD753EF6177231BF000000803F7B
:1000900008000000BE922449123EABAAAA2ABECD97
:1000A000CCCC4C3E00000080BEABAAAAAA3E000009
:1000B0000000BF000000803F000000000008417801
:1000C000D3BB4387D1133D190E3CC3BD4282AD2B38
:1000D0003E68EC8276BED98FE1A93E4C80EFFFBE30
:1000E00001C4FF7F3F00000000000000000024006A
:1000F00027002A0000000008000201000003040796
:1001000000000000000000000000000023002600A6
:10011000290000000000250028002B00040404042E
:1001200004040404020202020202030303030303A1
:10013000010204081020408001020408102001027E
:1001400004081020FD0DCF1011241FBECFEFD8E002
:10015000DEBFCDBF24E0ACE0B3E001C01D92AF37FD
:10016000B207E1F713E0A0E0B1E0ECEDFEE202C07F
:1001700005900D92AC30B107D9F710E0C3EAD0E09A
:1001800004C02197FE010E946915C23AD107C9F740
:100190000E941B0F0C9461170C940000CF92DF9209
:1001A000EF92FF92CF93DF93B0910B04A0E0811107
:1001B000AB2F80910C0490E0880F991FAC01485F31
:1001C0005E4FC0901104D0901204E0901304F090A0
:1001D000140430E020E0FA01C591D491E881B9011E
:1001E00090E080E0EB23EA130AC02F5F3F4F6C15CD
:1001F0007D058E059F0578F36FEF7FEFCB01DF91D3
:10020000CF91FF90EF90DF90CF900895833081F0F1
:1002100028F4813099F08230A9F008958730A9F050
:100220008830C9F08430B1F4809180008F7D03C0A4
:10023000809180008F7780938000089584B58F77B8
:1002400084BD089584B58F7DFBCF8091B0008F77FA
:100250008093B00008958091B0008F7DF9CF1F93F7
:10026000CF93DF93282F30E0F901EC50FF4F8491BA
:10027000F901E05DFE4FD491F901E45EFE4FC491B7
:10028000CC23A9F0162F81110E940601EC2FF0E07B
:10029000EE0FFF1FEE5EFE4FA591B4918FB7F8945D
:1002A000EC91111108C0D095DE23DC938FBFDF9154
:1002B000CF911F910895DE2BF8CFCF93DF9390E07D
:1002C000FC01E05DFE4F2491845E9E4FFC01849111
:1002D0008823C9F090E0880F991FFC01E651FF4F79
:1002E000A591B491FC01EE5EFE4FC591D4916111D0
:1002F0000DC09FB7F8948C91209582238C938881B0
:10030000282328839FBFDF91CF910895623051F455
:100310009FB7F8943C91822F809583238C93E8813A
:100320002E2BEFCF8FB7F894EC912E2B2C938FBF01
:10033000EACF8E3008F08E508770806480937C0006
:1003400080917A00806480937A0080917A0086FDA3
:10035000FCCF809178009091790008953FB7F89490
:100360008091630390916403A0916503B09166034B
:1003700026B5A89B05C02F3F19F00196A11DB11D00
:100380003FBFBA2FA92F982F8827BC01CD01620F3C
:10039000711D811D911D42E0660F771F881F991FF7
:1003A0004A95D1F708958F929F92AF92BF92CF92C4
:1003B000DF92EF92FF924B015C010E94AE016B0154
:1003C0007C010E94AE016C197D098E099F09683E6F
:1003D000734081059105A8F321E0821A9108A108D4
:1003E000B10888EEC80E83E0D81EE11CF11C811410
:1003F0009104A104B10429F7FF90EF90DF90CF9012
:10040000BF90AF909F908F9008952FB7F894609110
:100410005F037091600380916103909162032FBF2D
:100420000895CF92DF92EF92FF920F931F93CF9395
:10043000DF93CDB7DEB7C054D1400FB6F894DEBF1E
:100440000FBECDBF0E94050200910D0410910E0455
:1004500020910F04309110046B017C01C01AD10A65
:10046000E20AF30A97018601003D17402105310594
:1004700090F480911504C05CDE4F0FB6F894DEBF97
:100480000FBECDBFDF91CF911F910F91FF90EF90E5
:10049000DF90CF90089560930D0470930E048093C5
:1004A0000F04909310041092080410920704109205
:1004B0000604109205041092040462E0809109047D
:1004C0000E945D0161E070E080E090E00E94D30155
:1004D00061E0809109040E945D0160E0809109045F
:1004E0000E942F0180910A048551823020F58BE211
:1004F00091E10197F1F762E0809109040E945D01AA
:100500008091160490E08230910538F0880F991F91
:10051000880F991F05970197F1F7F89480E00E94E2
:10052000CE006F3F7F4F8F4F9F4F61F410921504A5
:10053000789480E0A0CF64E170E080E090E00E94D9
:10054000D301D9CF81E00E94CE006F3F7F4F8F4F04
:100550009F4F61F38E010F5F1F4F6E012FEBC21A89
:100560002EEFD20A780180E00E94CE00F70160836E
:1005700071838283938381E00E94CE00F7016483BC
:10058000758386839783F8E0EF0EF11CEC14FD046D
:1005900051F7789430E020E0F801C080D180E2800B
:1005A000F3804481558166817781FFEFCF16DF06A6
:1005B000EF06FF0631F04F3F8FEF580768077807C7
:1005C00019F410921504B5CFF90183E0F595E7957C
:1005D0008A95E1F7EC5FFB4F8081880FC416D50642
:1005E000E606F70610F180832F5F3F4F085F1F4F2D
:1005F0002832310589F64091080420910404809145
:100600000504280F3327331F80910604280F311D5E
:1006100080910704820F932F911D9927481719067F
:1006200081F681E08093150426CF8160DCCFAF9204
:10063000BF92CF92DF92EF92FF920F931F93CF93CF
:10064000DF936C017B018B01040F151FEB015E0131
:10065000AE18BF08C017D10759F06991D601ED91C6
:10066000FC910190F081E02DC6010995892B79F765
:10067000C501DF91CF911F910F91FF90EF90DF9017
:10068000CF90BF90AF900895FC01538D448D252FDE
:1006900030E0842F90E0821B930B541710F0CF961C
:1006A000089501970895FC01918D828D981761F04E
:1006B000A28DAE0FBF2FB11D5D968C91928D9F5F65
:1006C0009F73928F90E008958FEF9FEF0895FC0144
:1006D000918D828D981731F0828DE80FF11D858DF7
:1006E00090E008958FEF9FEF0895FC01918D228D8A
:1006F000892F90E0805C9F4F821B91098F7399270F
:10070000089587E693E00E94750321E0892B09F4A0
:1007100020E0822F089580E090E0892B29F00E944C
:10072000810381110C9400000895FC01A48DA80F91
:10073000B92FB11DA35ABF4F2C91848D90E0019623
:100740008F739927848FA689B7892C93A089B18943
:100750008C91837080648C93938D848D981306C0E4
:100760000288F389E02D80818F7D80830895EF9248
:10077000FF920F931F93CF93DF93EC0181E0888F5B
:100780009B8D8C8D98131AC0E889F989808185FF2B
:1007900015C09FB7F894EE89FF896083E889F989CD
:1007A00080818370806480839FBF81E090E0DF91CF
:1007B000CF911F910F91FF90EF900895F62E0B8D22
:1007C00010E00F5F1F4F0F731127E02E8C8D8E11DD
:1007D0000CC00FB607FCFACFE889F989808185FF44
:1007E000F5CFCE010E949503F1CFEB8DEC0FFD2FDD
:1007F000F11DE35AFF4FF0829FB7F8940B8FEA89FF
:10080000FB8980818062CFCFCF93DF93EC01888D0D
:100810008823B9F0AA89BB89E889F9898C9185FD7B
:1008200003C0808186FD0DC00FB607FCF7CF8C9109
:1008300085FFF2CF808185FFEDCFCE010E94950329
:10084000E9CFDF91CF91089520915C0330915D0352
:100850002817390771F490915A0380915B03981718
:1008600041F0E0915A03F0E0E65EFC4F808190E0B9
:1008700008958FEF9FEF08950895EF92FF920F93E1
:100880001F93CF93DF93DC015C96ED90FC905D9716
:10089000E114F10479F481E090E013969C938E9337
:1008A000129790E080E0DF91CF911F910F91FF9020
:1008B000EF9008955196ED91FC91529750968C913E
:1008C0005097982F90950FB75E962C915E97122FA8
:1008D000127021FD6095F8942081112319F1282BC5
:1008E0002083E7012197F1F728E0462F50E030817F
:1008F00060FF1AC0382B3083E7012197F1F7BA0166
:1009000075956795215089F7112381F0808189239E
:1009100080830FBF5C968D919C910197F1F781E0E8
:1009200090E0C1CF2923DCCF3923E5CF9081892BFB
:10093000EFCF20915C0330915D032817390761F4F4
:1009400080915B0320915A0390E0805C9F4F821B53
:1009500091098F739927089590E080E00895209180
:100960005C0330915D0328173907B9F490915A035D
:1009700080915B03981789F0E0915A03F0E0E65EFE
:10098000FC4F808120915A0330E02F5F3F4F2F733F
:10099000332720935A0390E008958FEF9FEF089537
:1009A00090E080E00895FB0101900020E9F7319785
:1009B000AF01461B570BDC01ED91FC910280F381E6
:1009C000E02D0994CF93DF93FC0144815581608130
:1009D00071818CE594E00E941703EC016AE271E0FA
:1009E0008CE594E00E94D3048C0F9D1FDF91CF9182
:1009F00008958F929F92AF92BF920F931F93CF93C0
:100A0000DF93CDB7DEB7A1970FB6F894DEBF0FBE68
:100A1000CDBF19A2423008F44AE08E010F5D1F4F8E
:100A2000842E912CB12CA12CA50194010E94471574
:100A3000E62FB901CA01EA3004F5E05DD801EE9372
:100A40008D01232B242B252B79F790E080E0109744
:100A500029F0BD0187E693E00E94D304A1960FB66A
:100A6000F894DEBF0FBECDBFDF91CF911F910F91E4
:100A7000BF90AF909F908F900895E95CDFCFCF92A9
:100A8000DF92EF92FF92CF93DF936B017C016DE2D7
:100A900087E693E00E94B703EC0166277727CB0136
:100AA0006C197D098E099F094AE00E94F9048C0F98
:100AB0009D1FDF91CF91FF90EF90DF90CF90089531
:100AC000BC01990F880B990B97FD0C943F054AE0E8
:100AD0000C94F904BC0187E693E00C94D3044F9284
:100AE0005F926F927F928F929F92AF92BF92CF92BE
:100AF000DF92EF92FF926B017C01AC019B010E949F
:100B00000D146DE271E0811126C046015701E89491
:100B1000B7F82FEF3FEF4FE75FE7C501B4010E9441
:100B20000D1481110CC02FEF3FEF4FE75FE7C501B8
:100B3000B4010E94481161E371E0181664F02FEFD0
:100B40003FEF4FE75FE4C701B6010E94B8131816E4
:100B500094F465E371E087E693E0FF90EF90DF9017
:100B6000CF90BF90AF909F908F907F906F905F904D
:100B70004F900C94D3042FEF3FEF4FE75FECC7018A
:100B8000B6010E94481187FDE4CF20E030E0A901C2
:100B9000C701B6010E944811B12CA12C87FF0AC0E1
:100BA0006DE287E693E00E94B7035C01F7FAF094E8
:100BB000F7F8F0942AE037ED43EA5BE3C701B601AA
:100BC0000E94A4122B013C010E9489136B017C013D
:100BD0000E944D119B01AC01C301B2010E94A312FE
:100BE0002B013C014AE0C701B6010E94F9047C01D7
:100BF000EA0CFB1C6EE287E693E00E94B703E80E66
:100C0000F91E20E030E040E251E4C301B2010E944D
:100C1000AE112B013C010E9489134B01B12CA12C78
:100C20004AE0C501B4010E94F904E80EF91EC501AD
:100C3000B4010E944D119B01AC01C301B2010E949D
:100C4000A31220E030E040E251E40E94AE110E9485
:100C5000891390E080E04AE00E94F9048E0D9F1D08
:100C6000FF90EF90DF90CF90BF90AF909F908F90CC
:100C70007F906F905F904F9008950F931F93CF9345
:100C8000DF93EC0188819981009759F02A813B819B
:100C90002617370730F081E0DF91CF911F910F9138
:100CA00008958B016F5F7F4F0E949416009759F053
:100CB000998388831B830A832C813D81232B59F7D9
:100CC000FC011082E8CF80E0E7CFEF92FF920F9314
:100CD0001F93CF93DF936115710541F480E0DF919D
:100CE000CF911F910F91FF90EF90089541155105FD
:100CF000B1F07B01EC010C811D81040F151FB801BF
:100D00000E943D06882351F3288139818C819D8181
:100D1000B701820F931F0E945A171D830C8381E035
:100D2000DECFCF93DF93EC0188819981009711F09A
:100D30000E940B16198218821D821C821B821A8245
:100D4000DF91CF910895CF93DF93EC01FB010190E8
:100D50000020E9F73197AF01461B570B0E9465064B
:100D6000811103C0CE010E949106CE01DF91CF9187
:100D70000895CF93DF93EC01FB014481558160819D
:100D800071810E946506811103C0CE010E94910607
:100D9000CE01DF91CF910895EF92FF920F931F93B1
:100DA000CF93DF93EC017B018A01BA010E943D06DB
:100DB00081110BC0CE010E949106CE01DF91CF912F
:100DC0001F910F91FF90EF9008951D830C83B70141
:100DD000888199810E945A17F0CFEF92FF920F936A
:100DE0001F93CF93DF93CDB7DEB761970FB6F8941B
:100DF000DEBF0FBECDBF8C01CB01F8011182108286
:100E000013821282158214824AE09E012F5F3F4FA7
:100E10007901B9010E941E11F70101900020E9F744
:100E20003197AF014E195F09B701C8010E94CC0686
:100E300061960FB6F894DEBF0FBECDBFDF91CF91A4
:100E40001F910F91FF90EF900895EF92FF920F93F3
:100E50001F93CF93DF93CDB7DEB762970FB6F894A9
:100E6000DEBF0FBECDBF8C01CB01F8011182108215
:100E700013821282158214824AE09E012F5F3F4F37
:100E80007901B9010E941311F70101900020E9F7DF
:100E90003197AF014E195F09B701C8010E94CC0616
:100EA00062960FB6F894DEBF0FBECDBFDF91CF9133
:100EB0001F910F91FF90EF900895FB01DC011196B7
:100EC0001C921E9213961C921E92129715961C92BB
:100ED0001E9214978617970749F0608171816115FA
:100EE000710521F0448155810C94CC060895FC01D4
:100EF000118210821382128215821482FB010190EA
:100F00000020E9F73197AF01461B570B0C94CC0634
:100F1000CF92DF92EF92FF920F931F93CF93DF93C5
:100F200000D0CDB7DEB78C017B0189E391E00E9450
:100F30006A05F701448155816081718187E693E0FC
:100F40000E94170369E471E087E693E00E94D304EE
:100F50006AE271E087E693E00E94D3046CE271E0FC
:100F6000C8010E947707C7010E94E2040E9405029F
:100F70006B017C01F8EECF0EF3E0DF1EE11CF11CEB
:100F80000E9405026C157D058E059F05A8F48CE571
:100F900094E00E949904892B99F38CE594E00E94D7
:100FA000AF0489831A8241E050E0BE016F5F7F4F3A
:100FB000C8010E946506EBCFC8010F900F90DF912A
:100FC000CF911F910F91FF90EF90DF90CF900895F8
:100FD000FC0180819181009711F00C940B1608950B
:100FE0004F925F926F927F928F929F92AF92BF9239
:100FF000CF92DF92EF92FF920F931F93CF93DF93E5
:10100000CDB7DEB7E6970FB6F894DEBF0FBECDBF03
:1010100061E086E00E942F0160E087E00E942F01DE
:1010200060E085E00E942F010E941102882349F0B0
:1010300080910A048B3028F08D3050F08551823039
:10104000C8F1812C912C40ECA42E4FE7B42E1EC089
:101050006091050470E090E080E00E944F112DEC5B
:101060003CEC4CEC5DE30E94AE116B017C016091A5
:10107000040470E090E080E00E944F119B01AC01FD
:10108000C701B6010E94A4124B015C010E9411022B
:10109000882309F462C480910A048C3009F438C4AE
:1010A000D8F48B3091F1C12CD12C20ECE22E2FE71B
:1010B000F22E55C0609104047091050476276727CD
:1010C000762790E080E00E944D112DEC3CEC4CEC3A
:1010D0005DE30E94AE11D8CF8551823020F7109188
:1010E0000604612F70E0762F662766277F77809150
:1010F0000704682B90E080E00E944D112DEC3CEC41
:101100004CEC5DE30E94AE111FC46091060470E0D8
:1011100090E080E00E944D116B017C01109107046A
:1011200017FF0AC0AC019B0160E070E080E89FEB14
:101130000E94A3126B017C011F70612F70E090E090
:1011400080E00E944F112DEC3CEC4CEC5DE30E94E2
:10115000AE11A70196010E94A4126B017C01A701A8
:101160009601C701B6010E940D14811109C0A501A5
:101170009401C501B4010E940D14882309F4F4C33D
:101180008FE491E00E946A0520E030E044E052E400
:10119000C701B6010E94B81387FD0CC087E891E033
:1011A0000E946A05C701B6010E946F0584EA91E0BA
:1011B0000E946A05EEEFF0E08491EAE3F1E0149119
:1011C000E6E2F1E00491002309F4E5C381110E94F5
:1011D0000601E02FF0E0EE0FFF1FE85FFE4FA59144
:1011E000B491EC911E2391E080E009F490E090939B
:1011F00018038093190380E10E9499018C0189EA08
:1012000091E00E946A05C8010E9460058BE291E0AE
:101210000E946A058091180390911903019709F0C3
:10122000BDC361E087E00E942F0160E086E00E947C
:101230002F0187EC91E00E946A0568EE73E080E080
:1012400090E00E94D3018EE00E94990190931703D1
:10125000809316030E9460058BE291E00E946A056C
:1012600080911603909117038039914074F061E0EA
:1012700087E00E942F0160E086E00E942F0164E673
:1012800070E080E090E00E94D301809117040E94FA
:101290009901BC01990F880B990B0E944F119B017A
:1012A000AC0160E070EC8FE794E40E94101320E042
:1012B00030E040E85FE30E94A312209118043091CF
:1012C000190440911A0450911B040E94AE11209100
:1012D0001C0430911D0440911E0450911F040E9473
:1012E00010132EED37E341E350EC0E94BD1322E4CE
:1012F00034E349EE52E40E94AE112B013C0120E0A0
:1013000030E048E454E40E94B813181684F48DEEDB
:1013100091E00E946A0561E087E00E942F0160E091
:1013200086E00E942F0161E085E00E942F01C70145
:10133000B6010E9482136B0170931503609314032E
:10134000C501B4010E9482137093130360931203CA
:1013500080E190E090931103809310038091160335
:101360009091170390930F0380930E03C301B20172
:101370000E94821370930D0360930C03B601CE019B
:1013800007960E94250768E172E0CE0101960E944F
:1013900077076AE474E0CE0101960E94B9066DE217
:1013A00072E00E94A30668E374E00E94B9066BE253
:1013B00072E00E94A306BE01695F7F4F0E94B906DA
:1013C000BC01CE0149960E945D07CE0101960E94A4
:1013D000E807CE0107960E94E8076091120370911A
:1013E0001303CE0107960E94250768E172E0CE0143
:1013F00001960E9477076AE474E0CE0101960E948C
:10140000B9066DE272E00E94A30662E374E00E94F6
:10141000B9066BE272E00E94A306BE01695F7F4FCE
:101420000E94B906BC01CE014F960E945D07CE0115
:1014300001960E94E807CE0107960E94E807609196
:10144000100370911103CE0107960E94250768E1F1
:1014500072E0CE0101960E9477076AE474E0CE0143
:1014600001960E94B9066DE272E00E94A3066CE24A
:1014700074E00E94B9066BE272E00E94A306BE010E
:10148000695F7F4F0E94B906BC01CE0185960E941C
:101490005D07CE0101960E94E807CE0107960E94E3
:1014A000E80760910E0370910F03CE0107960E942A
:1014B000250768E172E0CE0101960E9477076AE491
:1014C00074E0CE0101960E94B9066DE272E00E94BE
:1014D000A30666E274E00E94B9066BE272E00E9425
:1014E000A306BE01695F7F4F0E94B906BC01CE0111
:1014F0008B960E945D07CE0101960E94E807CE01FF
:1015000007960E94E80760910C0370910D03CE01CD
:1015100007960E94250768E172E0CE0101960E94BD
:1015200077076AE474E0CE0101960E94B9066DE285
:1015300072E00E94A30660E274E00E94B9066BE2CA
:1015400072E00E94A306BE01695F7F4F0E94B90648
:10155000BC01CE01C1960E945D07CE0101960E949A
:10156000E807CE0107960E94E8076FE272E0CE011D
:1015700001960E947707BE016F5F7F4FCE010796ED
:101580000E948807CE0107960E94E807CE010196C7
:101590000E94E8076BE372E0CE0101960E94770794
:1015A00064E474E0CE0101960E94B90661E572E040
:1015B0000E94A3066EE374E00E94B906BC01CE014E
:1015C00007960E945D07BE01695F7F4FCE010D96B1
:1015D0000E948807CE010D960E94E807CE0107966B
:1015E0000E94E807CE0101960E94E8076D8D7E8D6E
:1015F0006C5F7F4FCE0107960E94ED0664E572E0B6
:10160000CE0101960E947707BE01695F7F4FCE0130
:1016100001960E94B906BC01CE010D960E945D079D
:10162000BE01635F7F4FCE0143960E948807CE01C3
:1016300043960E94E807CE010D960E94E807CE016E
:1016400001960E94E807CE0107960E94E8076BA169
:101650007CA16C5F7F4FCE0107960E94ED0664E58A
:1016600072E0CE0101960E947707BE01695F7F4F4D
:10167000CE0101960E94B906BC01CE010D960E94D2
:101680005D07BE01635F7F4FCE0143960E948807CE
:10169000CE0143960E94E807CE010D960E94E8070E
:1016A000CE0101960E94E807CE0107960E94E80746
:1016B00069A57AA56C5F7F4FCE0107960E94ED0663
:1016C00064E572E0CE0101960E947707BE01695F72
:1016D0007F4FCE0101960E94B906BC01CE010D9646
:1016E0000E945D07BE01635F7F4FCE0143960E945B
:1016F0008807CE0143960E94E807CE010D960E940E
:10170000E807CE0101960E94E807CE0107960E94E5
:10171000E8076FA578A96C5F7F4FCE0107960E94FE
:10172000ED0664E572E0CE0101960E947707BE01E6
:10173000695F7F4FCE0101960E94B906BC01CE01C0
:101740000D960E945D07BE01635F7F4FCE014396F9
:101750000E948807CE0143960E94E807CE010D96AD
:101760000E94E807CE0101960E94E807CE01079685
:101770000E94E8076DA97EA96C5F7F4FCE01079696
:101780000E94ED0664E572E0CE0101960E947707A3
:10179000BE01695F7F4FCE0101960E94B906BC0170
:1017A000CE010D960E945D07BE01635F7F4FCE01A3
:1017B00043960E948807CE0143960E94E807CE0117
:1017C0000D960E94E807CE0101960E94E807CE011F
:1017D00007960E94E807809114039091150389975A
:1017E00064F062E672E087E693E00E94D3046AE266
:1017F00071E087E693E00E94D3040E9405026093A3
:1018000064047093650480936604909367048CE588
:1018100094E00E94AF0497FFD2C00E94050200919D
:101820006404109165042091660430916704601B84
:10183000710B820B930B0091600410916104209155
:101840006204309163046017710782079307F8F20E
:10185000CE0149960E94E20482E792E00E946A0566
:101860006091140370911503072E000C880B990BDF
:1018700097FFA1C00E943F056AE271E087E693E00E
:101880000E94D30465E872E0CE0101960E947707BA
:10189000BE016F5F7F4FCE0107960E948807CE0181
:1018A00007960E94E807CE0101960E94E80760E1D2
:1018B00077E280E090E00E94D301CE01C1960E94C1
:1018C000E807CE018B960E94E807CE0185960E941C
:1018D000E807CE014F960E94E807CE0149960E9484
:1018E000E807E6960FB6F894DEBF0FBECDBFDF91D6
:1018F000CF911F910F91FF90EF90DF90CF90BF900D
:10190000AF909F908F907F906F905F904F900895D1
:1019100010910604612F70E090E080E00E944D116C
:101920006B017C01609107046F7070E090E080E0D3
:101930000E944F112DEC3CEC4CEC5DE30E94AE118B
:10194000A70196010E94A4126B017C0117FF07CC2E
:10195000F7FAF094F7F8F09402CCC12CD12C90EC6B
:10196000E92E9FE7F92E0CCC86E691E00E946A05ED
:10197000C701B6010E946F0584E791E00E946A05E5
:101980008CE791E00E946A05C501B4010E946F05D1
:1019900085E891E0F7CB90E080E029CC60E087E03B
:1019A0000E942F0161E086E00E942F018FED91E0FF
:1019B0000E946A0548CC4AE00E94F9045DCFCE97A8
:1019C00009F01BCF45CF1F920F920FB60F92112433
:1019D0002F933F938F939F93AF93BF9380915F0318
:1019E00090916003A0916103B091620330915E0316
:1019F00023E0230F2D3758F50196A11DB11D20932B
:101A00005E0380935F0390936003A0936103B093A0
:101A100062038091630390916403A0916503B09188
:101A200066030196A11DB11D809363039093640327
:101A3000A0936503B0936603BF91AF919F918F917F
:101A40003F912F910F900FBE0F901F90189526E891
:101A5000230F0296A11DB11DD2CF1F920F920FB678
:101A60000F9211242F933F934F935F936F937F9324
:101A70008F939F93AF93BF93EF93FF9387E693E08A
:101A80000E949503FF91EF91BF91AF919F918F912C
:101A90007F916F915F914F913F912F910F900FBE6A
:101AA0000F901F9018951F920F920FB60F9211244E
:101AB0002F938F939F93EF93FF93E0917703F09190
:101AC00078038081E0917D03F0917E0382FD1BC04D
:101AD0009081809180038F5F8F73209181038217A3
:101AE00041F0E0918003F0E0E959FC4F958F80933D
:101AF0008003FF91EF919F918F912F910F900FBED7
:101B00000F901F9018958081F4CF1F920F920FB6FF
:101B10000F9211242F933F934F935F936F937F9373
:101B20008F939F93AF93BF93EF93FF93E0915C03E9
:101B3000F0915D03309749F0A685B7858585968D30
:101B400091FF14C09C918923A1F4FF91EF91BF9163
:101B5000AF919F918F917F916F915F914F913F9145
:101B60002F910F900FBE0F901F9018959C91892375
:101B700061F7A389B4899C918589809589238C9389
:101B8000868997890197F1F7608D718DA685B78554
:101B9000558538E020E0CB010197F1F7822F90E0E6
:101BA00095958795282F4C91452309F02068315051
:101BB00091F7868D81FD209580915B0390E00196E1
:101BC0008F73992730915A03381799F0A0915B03CE
:101BD000B0E0A65EBC4F2C9380935B03828D938D07
:101BE0000197F1F7A389B4898C919589892B8C93FE
:101BF000ACCF868D8160868FF1CF10926A031092F0
:101C0000690388EE93E0A0E0B0E080936B039093CB
:101C10006C03A0936D03B0936E032AE031E0309320
:101C200068032093670325EC30E03093740320931E
:101C3000730324EC30E0309376032093750320EC9B
:101C400030E0309378032093770321EC30E0309339
:101C50007A032093790322EC30E030937C032093C5
:101C60007B0326EC30E030937E0320937D031092BB
:101C700080031092810310928203109283031092CA
:101C80005F0410925E048093600490936104A093BB
:101C90006204B09363048CE191E090935D048093BF
:101CA0005C041092730410927204109275041092E6
:101CB00074041092770410927604109279041092B2
:101CC000780460917A046E7F6D7F60937A046695E4
:101CD000617081E068278BE00E942F0161E08BE05A
:101CE0000E945D01EBE3F1E0E491E0936C04E7E234
:101CF000F1E0E491F0E0EE0FFF1FEE5EFE4F859104
:101D0000949190936E0480936D0460E08AE00E9449
:101D10005D0180917A0481FD04C061E08AE00E9447
:101D20002F018AE080936804EAE3F1E0E491E09314
:101D30006904E6E2F1E0E491F0E0EE0FFF1FE85FF6
:101D4000FE4F8591949190936B0480936A0463E9AC
:101D500072E086E594E00E94770769E972E080E529
:101D600094E00E94770763EA72E08AE494E00E94BC
:101D7000770764EB72E084E494E00E94770767ECF5
:101D800072E08EE394E00E9477076AEC72E088E3E9
:101D900094E00E94770761ED72E082E394E00E9494
:101DA000770768ED72E08CE294E00E9477076FEDB0
:101DB00072E086E294E00E94770766EE72E080E2CD
:101DC00094E00E9477078FE0809317048FE892E4F5
:101DD000A9E9B2E480931C0490931D04A0931E040F
:101DE000B0931F0480E090E0A0E2B1E48093180477
:101DF00090931904A0931A04B0931B0482E080937B
:101E0000090486E180930A04E2E3F1E0E491E093BF
:101E10000B04EEE1F1E0E491E0930C0480E89EE332
:101E2000A0E0B0E08093110490931204A0931304F7
:101E3000B09314040895CF93DF93CDB7DEB76297C4
:101E40000FB6F894DEBF0FBECDBF789484B5826024
:101E500084BD84B5816084BD85B5826085BD85B54E
:101E6000816085BD80916E00816080936E001092CC
:101E70008100809181008260809381008091810047
:101E800081608093810080918000816080938000D8
:101E90008091B10084608093B1008091B000816036
:101EA0008093B00080917A00846080937A00809162
:101EB0007A00826080937A0080917A0081608093BA
:101EC0007A0080917A00806880937A001092C10035
:101ED000E0917703F091780382E08083E0917303CF
:101EE000F09174031082E0917503F09176038FEC0A
:101EF000808310927F03E0917B03F0917C0386E066
:101F00008083E0917903F0917A03808180618083FE
:101F1000E0917903F0917A03808188608083E09179
:101F20007903F0917A03808180688083E09179035E
:101F3000F0917A0380818F7D8083109277041092D4
:101F40007604109275041092740410927304109227
:101F500072048FE190E090937904809378049091DB
:101F60006804963108F047C021E030E030937304F4
:101F7000209372042DE130E03093750420937404B3
:101F80002DE030E0309377042093760420916800B0
:101F900084E0983048F031E09E3008F430E081E091
:101FA00001C0880F3A95EAF7822B809368002DE6EE
:101FB00030E0983050F02BE630E09E3030F02CE6E8
:101FC00030E0963110F030E020E030937004209340
:101FD0006F04292F30E0983008F0D4C081E001C0B0
:101FE000880F9A95EAF78093710480917804909114
:101FF00079040197F1F78091760490917704892B09
:1020000049F1E0915C03F0915D0384E0EC35F80761
:1020100009F1309739F0A389B4899C91858980951D
:1020200089238C9380917A048E7F80937A04109216
:102030005B0310925A038CE594E090935D038093C8
:102040005C03E0916F04F0917004808190917104C1
:10205000892B808360E08AE00E945D0162E08091CC
:1020600009040E945D010E940502605D77408109BC
:10207000910960930D0470930E0480930F04909364
:10208000100487E3809316046DEE72E0CE0107968C
:102090000E947707BE01695F7F4FCE0101960E94C3
:1020A0008807CE0101960E94E807CE0107960E949C
:1020B000E80764EF72E0CE0107960E947707BE0141
:1020C000695F7F4FCE0101960E948807CE0101967D
:1020D0000E94E807CE0107960E94E80760E073E0DF
:1020E000CE010D960E94770766E574E0CE010D964D
:1020F0000E94B9066DE472E00E94A30660E574E0F8
:102100000E94B9066FE472E00E94A306BC01CE01F2
:1021100007960E945D07BE01695F7F4FCE01019661
:102120000E948807CE0101960E94E807CE0107961B
:102130000E94E807CE010D960E94E80761E087E063
:102140000E945D0161E086E00E945D0161E085E042
:102150000E945D0160E080E10E945D0168EE73E035
:1021600080E090E00E94D30100E010E00E94F007C0
:1021700001151105D9F30E9481038823B9F30E9448
:102180000000F4CF9E3040F42850310981E001C0B6
:10219000880F2A95EAF727CF2E503109F7CF80E232
:1021A00094E00E94E80786E294E00E94E8078CE24F
:1021B00094E00E94E80782E394E00E94E80788E345
:1021C00094E00E94E8078EE394E00E94E80784E42C
:1021D00094E00E94E8078AE494E00E94E80780E522
:1021E00094E00E94E80786E594E00E94E8078CE10D
:1021F00091E090935D0480935C0480915C039091E6
:102200005D038C55944071F4E0916F04F09170047B
:1022100090818091710480958923808310925D0361
:1022200010925C030895BB274A3031F4992322F4BD
:10223000BDE2909581959F4F0C941F11BB27FB0128
:102240005527AA27880F991FAA1FA41710F0A41BAF
:1022500083955051B9F7A05DAA3308F0A95DA19309
:10226000009779F7B111B1931192CB010C94381109
:10227000DC01FC01672F71917723E1F7329704C0ED
:102280007C916D9370836291AE17BF07C8F3089578
:102290000E948A1108F481E00895E89409C097FB30
:1022A0003EF490958095709561957F4F8F4F9F4F2D
:1022B0009923A9F0F92F96E9BB279395F695879571
:1022C00077956795B795F111F8CFFAF4BB0F11F434
:1022D00060FF1BC06F5F7F4F8F4F9F4F16C08823DB
:1022E00011F096E911C0772321F09EE8872F762F11
:1022F00005C0662371F096E8862F70E060E02AF052
:102300009A95660F771F881FDAF7880F969587953D
:1023100097F90895990F0008550FAA0BE0E8FEEF12
:1023200016161706E807F907C0F012161306E40799
:10233000F50798F0621B730B840B950B39F40A2692
:1023400061F0232B242B252B21F408950A2609F470
:10235000A140A6958FEF811D811D08950E94C11196
:102360000C9432120E94241238F00E942B1220F09A
:10237000952311F00C941B120C94211211240C942F
:1023800066120E94431270F3959FC1F3950F50E0BF
:10239000551F629FF001729FBB27F00DB11D639F17
:1023A000AA27F00DB11DAA1F649F6627B00DA11DBD
:1023B000661F829F2227B00DA11D621F739FB00D63
:1023C000A11D621F839FA00D611D221F749F3327D3
:1023D000A00D611D231F849F600D211D822F762F6C
:1023E0006A2F11249F5750409AF0F1F088234AF049
:1023F000EE0FFF1FBB1F661F771F881F91505040B5
:10240000A9F79E3F510580F00C941B120C946612A4
:102410005F3FE4F3983ED4F3869577956795B7953B
:10242000F795E7959F5FC1F7FE2B880F911D969555
:10243000879597F9089597F99F6780E870E060E0C5
:1024400008959FEF80EC089500240A94161617064D
:1024500018060906089500240A9412161306140695
:1024600005060895092E0394000C11F4882352F0F8
:10247000BB0F40F4BF2B11F460FF04C06F5F7F4FB0
:102480008F4F9F4F089557FD9058440F551F59F097
:102490005F3F71F04795880F97FB991F61F09F3F51
:1024A00079F087950895121613061406551FF2CF7A
:1024B0004695F1DF08C0161617061806991FF1CFCA
:1024C00086957105610508940895E894BB276627F1
:1024D0007727CB0197F908952F923F924F925F9201
:1024E0006F927F928F929F92AF92BF92CF92DF9224
:1024F000EF92FF920F931F93CF93DF93CDB7DEB789
:10250000CA1BDB0B0FB6F894DEBF0FBECDBF09941C
:102510002A88398848885F846E847D848C849B8473
:10252000AA84B984C884DF80EE80FD800C811B8181
:10253000AA81B981CE0FD11D0FB6F894DEBF0FBEB0
:10254000CDBFED0108955058BB27AA270E94BB12AA
:102550000C9432120E94241238F00E942B1220F0A8
:1025600039F49F3F19F426F40C9421120EF4E095EF
:10257000E7FB0C941B12E92F0E94431258F3BA1781
:10258000620773078407950720F079F4A6F50C9489
:1025900065120EF4E0950B2EBA2FA02D0B01B90198
:1025A00090010C01CA01A0011124FF27591B99F0C9
:1025B000593F50F4503E68F11A16F040A22F232FD5
:1025C000342F4427585FF3CF469537952795A79525
:1025D000F0405395C9F77EF41F16BA0B620B730BCC
:1025E000840BBAF09150A1F0FF0FBB1F661F771F3D
:1025F000881FC2F70EC0BA0F621F731F841F48F4F2
:10260000879577956795B795F7959E3F08F0B0CF7A
:102610009395880F08F09927EE0F97958795089561
:102620000E9424130C9432120E942B1258F00E9424
:10263000241240F029F45F3F29F00C941B12511131
:102640000C9466120C9421120E94431268F3992391
:10265000B1F3552391F3951B550BBB27AA2762179E
:102660007307840738F09F5F5F4F220F331F441FAB
:10267000AA1FA9F335D00E2E3AF0E0E832D09150DF
:102680005040E695001CCAF72BD0FE2F29D0660FCC
:10269000771F881FBB1F261737074807AB07B0E80F
:1026A00009F0BB0B802DBF01FF2793585F4F3AF015
:1026B0009E3F510578F00C941B120C9466125F3FFC
:1026C000E4F3983ED4F3869577956795B795F7959B
:1026D0009F5FC9F7880F911D9695879597F9089583
:1026E000E1E0660F771F881FBB1F6217730784071F
:1026F000BA0720F0621B730B840BBA0BEE1F88F72E
:10270000E09508950E9489136894B1110C946612A3
:1027100008950E944B1288F09F5798F0B92F99277F
:10272000B751B0F0E1F0660F771F881F991F1AF0BC
:10273000BA95C9F714C0B13091F00E946512B1E0AA
:1027400008950C946512672F782F8827B85F39F0A9
:10275000B93FCCF3869577956795B395D9F73EF455
:1027600090958095709561957F4F8F4F9F4F0895FD
:102770000E948A1108F48FEF0895FA01EE0FFF1FEF
:10278000309621053105A1F16115710561F480389C
:10279000BFE39B0749F168949038810561F0803868
:1027A000BFEF9B0741F099234AF5FF3FE105310553
:1027B000210519F1E8940894E795D901AA2329F491
:1027C000AB2FBE2FF85FD0F310C0FF5F70F4A6955B
:1027D000E0F7F73950F019F0FF3A38F49F779F93FC
:1027E0000DD00F9007FC9058089546F00C942112DC
:1027F00060E070E080E89FE308954FE79F775F9384
:102800004F933F932F930E94BD142F913F914F916F
:102810005F910E94AE110C941A140E948A11880BC9
:10282000990B089529F416F00C941B120C94651260
:102830000C9421120E944B12A8F39638A0F707F8C7
:102840000F92E8942BE33AEA48EB5FE70E94C41149
:102850000F920F920F924DB75EB70F920E9405151F
:10286000E8E6F0E00E944C144F915F91EF91FF91E8
:10287000E595EE1FFF1F49F0FE57E0684427EE0F75
:10288000441FFA95E1F74195550B0E947F140F9074
:1028900007FE0C9473140895DF93CF931F930F9347
:1028A000FF92EF92DF927B018C01689406C0DA2ED2
:1028B000EF010E94C111FE01E894A5912591359187
:1028C00045915591A6F3EF010E94BB12FE019701BD
:1028D000A801DA9469F7DF90EF90FF900F911F91B4
:1028E000CF91DF9108959B01AC0160E070E080E83A
:1028F0009FE30C9410130C941B120C9439150E9436
:102900004B12D8F39923C9F3940F511DA3F391509F
:10291000504094F059F0882332F0660F771F881FDB
:1029200091505040C1F79E3F51052CF7880F911DE3
:102930009695879597F908955F3FACF0983E9CF087
:10294000BB27869577956795B79508F4B160939501
:10295000C1F7BB0F58F711F460FFE8CF6F5F7F4FEF
:102960008F4F9F4FE3CF0C94661216F00C943915DD
:102970000C94211268940C941B120E944B12A8F321
:102980009923C1F3AEF3DF93CF931F930F93FF927D
:10299000C92FDD2788232AF02197660F771F881F0C
:1029A000DAF720E030E040E85FEB9FE3883920F081
:1029B000803E38F021968F770E94A412E0E9F0E083
:1029C00004C00E94A412EDEBF0E00E944C148B01B5
:1029D000BE01EC01FB2E6F5771097595771F880BAF
:1029E000990B0E944F1128E132E741E35FE30E9417
:1029F000C111AF2D9801AE01FF900F911F91CF91A2
:102A0000DF910E94BB120C943212FA01DC01AA0F72
:102A1000BB1F9B01AC01BF5728F422273327442753
:102A2000507820C0B75190F4AB2F002446953795CD
:102A30002795011CA395D2F3002071F0220F331FBC
:102A4000441FB395DAF30ED00C94A31261307105D4
:102A5000A0E88A07B94630F49B01AC0166277727C6
:102A600088279078309621F02083318342835383E6
:102A700008959F3F31F0915020F4879577956795A1
:102A8000B795880F911D9695879597F90895A1E2BE
:102A90001A2EAA1BBB1BFD010DC0AA1FBB1FEE1FD8
:102AA000FF1FA217B307E407F50720F0A21BB30B23
:102AB000E40BF50B661F771F881F991F1A9469F79F
:102AC00060957095809590959B01AC01BD01CF01FB
:102AD0000895EE0FFF1F0590F491E02D09940F93D8
:102AE0001F93CF93DF938230910510F482E090E042
:102AF000E0917D04F0917E0430E020E0B0E0A0E0C1
:102B0000309799F42115310509F44AC0281B390B77
:102B100024303105D8F58A819B816115710589F1D1
:102B2000FB0193838283FE0111C0408151810281A8
:102B3000138148175907E0F04817590799F410977F
:102B400061F012960C93129713961C933296CF0154
:102B5000DF91CF911F910F91089500937D04109301
:102B60007E04F4CF2115310551F04217530738F098
:102B7000A901DB019A01BD01DF01F801C1CFEF011D
:102B8000F9CF90937E0480937D04CDCFFE01E20FB8
:102B9000F31F819391932250310939832883D7CF32
:102BA00020917B0430917C04232B41F4209102017D
:102BB0003091030130937C0420937B042091000129
:102BC000309101012115310541F42DB73EB74091F7
:102BD000040150910501241B350BE0917B04F09119
:102BE0007C04E217F307A0F42E1B3F0B28173907CC
:102BF00078F0AC014E5F5F4F2417350748F04E0F59
:102C00005F1F50937C0440937B04819391939FCFEB
:102C1000F0E0E0E09CCFCF93DF930097E9F0FC0178
:102C2000329713821282A0917D04B0917E04ED014F
:102C300030E020E01097A1F420813181820F931FB2
:102C400020917B0430917C042817390709F061C07A
:102C5000F0937C04E0937B04DF91CF910895EA0127
:102C6000CE17DF07E8F54A815B819E0141155105CA
:102C7000B1F7E901FB83EA8349915991C40FD51F4C
:102C8000EC17FD0761F4808191810296840F951FF6
:102C9000E90199838883828193819B838A83F0E011
:102CA000E0E012968D919C9113970097B9F52D91C4
:102CB0003C911197CD010296820F931F20917B04C6
:102CC00030917C042817390739F6309751F5109266
:102CD0007E0410927D04B0937C04A0937B04BCCF4F
:102CE000D383C28340815181840F951FC817D907B0
:102CF00061F44E5F5F4F88819981480F591F51835E
:102D000040838A819B81938382832115310509F059
:102D1000B0CFF0937E04E0937D049ECFFD01DC01F3
:102D2000C0CF13821282D7CFB0E0A0E0EAE9F6E18B
:102D30000C946E128C01009751F4CB010E946F1518
:102D40008C01C801CDB7DEB7E0E10C948A12FC011A
:102D5000E60FF71F9C0122503109E217F30708F430
:102D60009DC0D901CD91DC911197C617D70798F076
:102D7000C530D10530F3CE0104978617970708F3C5
:102D8000C61BD70B2297C193D1936D937C93CF0130
:102D90000E940B16D6CF5B01AC1ABD0A4C018C0EFB
:102DA0009D1EA0917D04B0917E04512C412CF12CEC
:102DB000E12C109731F580917B0490917C0488156B
:102DC000990509F05CC04616570608F058C0809176
:102DD000000190910101009741F48DB79EB7409199
:102DE000040150910501841B950BE817F90708F0C1
:102DF00055C0F0937C04E0937B04F90171836083F8
:102E0000A0CF8D919C91119712966C90129713966A
:102E10007C901397A815B90559F56C0142E0C40ED2
:102E2000D11CCA14DB0420F1AC014A195B09DA0198
:102E30001296159780F06282738251834083D90184
:102E40006D937C93E114F10471F0D7011396FC9318
:102E5000EE93129776CF22968C0F9D1FF9019183E6
:102E60008083F301EFCFF0937E04E0937D0469CF7C
:102E70004816590608F42C017D01D3019ACFCB01E5
:102E80000E946F157C01009749F0AE01B8010E94C5
:102E90005117C8010E940B16870153CF10E000E0C4
:102EA00050CFFB01DC0102C001900D924150504017
:102EB000D8F70895FB01DC0101900D920020E1F7A5
:102EC000089510E0C3EAD0E004C0FE010E94691535
:0C2ED0002196C43AD107C9F7F894FFCF4F
:102EDC0000007F04800000000000B70317034403C8
:102EEC000404750353036703000000003D0417033B
:102EFC00D0043C049904AF0424040D0A006E616EE6
:102F0C0000696E66006F766600415420436F6D6DEC
:102F1C00616E64203D3D3E20002020202020006674
:102F2C0061696C656420746F20726561642044482B
:102F3C00542032320A0054656D706572617475727A
:102F4C00653A2000C2B043207E200A0068756D648B
:102F5C006974793A00250054656D707261747572EC
:102F6C0065204C6576656C20526973696E672074B8
:102F7C006F3A2000C2B0430A00616E616C6F6765E6
:102F8C00202076616C756520666F7220766962729E
:102F9C006174696F6E3A0073656E73696E67207346
:102FAC006F6D6520566962726174696F6E0A004EAE
:102FBC006F20566962726174696F6E0A00446574A1
:102FCC00656374696E672068696768206C657665EF
:102FDC006C206F6620536D6F6B6520696E20746872
:102FEC006520526F6F6D0A00474554202F75706431
:102FFC006174653F6170695F6B65793D00260041C6
:10300C00542B4349504D55583D310041542B4349A5
:10301C005053544152543D302C22544350222C22B4
:10302C0000222C0041542B43495053454E443D3013
:10303C002C00686967682074656D707261747572B4
:10304C00650056616C756520746F20626520736530
:10305C006E743A200041542B434950434C4F534516
:10306C003D3000436F64616B006C656D6C656D3059
:10307C00363400574B364854364150505543385A25
:10308C00564153006170692E7468696E6773706580
:10309C00616B2E636F6D003830006669656C64314E
:1030AC00006669656C6432006669656C6433006641
:1030BC0069656C6434006669656C64350041542B39
:1030CC005253540041542B43574D4F44453D31000E
:0C30DC0041542B43574A41503D22000054
:00000001FF
