:100000000C9485010C94B6010C94B6010C94B601C5
:100010000C94B6010C94B6010C94B6010C94B60184
:100020000C94B6010C9480080C9480080C94800801
:100030000C94B6010C94B6010C94B6010C94B60164
:100040000C94B6010C94B6010C94B6010C94B60154
:100050000C94B6010C94B6010C94B6010C94D6071E
:100060000C94B6010C944A080C9420080C94B60128
:100070000C94B6010C94B6010C94B6010C94B60124
:100080000C94B6010C94B6010C94B6010C94B60114
:100090000C94B6010C94B6010C94B6010C94B60104
:1000A0000C94B6010C94B6010C94B6010C94B601F4
:1000B0000C94B6010C94B6010C94B6010C94B601E4
:1000C0000C94B6010C94B6010C94B6010C94B601D4
:1000D0000C94B6010C94B6010C94B6010C94B601C4
:1000E0000C94B60107634236B79BD8A71A396856F5
:1000F00018AEBAAB558C1D3CB7CC5763BD6DEDFD4A
:10010000753EF6177231BF000000803F0800000006
:10011000BE922449123EABAAAA2ABECDCCCC4C3EFC
:1001200000000080BEABAAAAAA3E00000000BF00EB
:100130000000803F0000000000084178D3BB4387E7
:10014000D1133D190E3CC3BD4282AD2B3E68EC82FB
:1001500076BED98FE1A93E4C80EFFFBE01C4FF7F80
:100160003F00000000000C944E020C948E040C948E
:100170007D030C949D0F0C9423020C943B020C9471
:10018000FC080C94EA040C9449020C948D040C9421
:1001900033020C9491030C9441020C9414020C94BD
:1001A0009F030C94D7030C9420020C9424040C9409
:1001B00021050C946E030C942D020C9453020C94A4
:1001C00045020C941C020C9400050C9418020C942B
:1001D0004F020C9429020C9437020C9475040C9471
:1001E0000E020C94410300002100240027002A0085
:1001F0002D003000330001010000040107010A0155
:1002000000000A0B02090C0D0E0807030401000090
:1002100000000000000000000000000000000000DE
:10022000000000000000000000000000121110009B
:1002300000000000000000000000000000000000BE
:10024000000000000000000020002300260029001C
:100250002C002F00320000010000030106010901FB
:1002600000002200250028002B002E003100340061
:1002700002010000050108010B0105050505070540
:1002800008080808020202020A0A08080404040412
:10029000010101010101010103030303030303033E
:1002A000040707070C0C0C0C0C0C0C0C02020202CD
:1002B00006060606060606060B0B0B0B0B0B0B0BB6
:1002C0000102102020080810204010204080020168
:1002D000020108040201010204081020408080404D
:1002E000201008040201800402018040201008044C
:1002F00002010804020101020408102040800102EA
:10030000040810204080FC089D0F11241FBECFEF71
:10031000D1E2DEBFCDBF00E00CBF25E0A4ECB3E02E
:1003200001C01D92A531B207E1F713E0A0E0B2E0F1
:10033000E0E4FCE200E00BBF02C007900D92A43C99
:10034000B107D9F711E0C4E8D1E000E006C0219779
:100350000109802FFE010E94F013C338D10780E00D
:100360000807A9F70E94020A0C940E160C940000CC
:10037000CF92DF92EF92FF92CF93DF93B091B904C7
:10038000A0E08111AB2F8091BA0490E0880F991FF3
:10039000AC014A5B5D4FC090BF04D090C004E090B8
:1003A000C104F090C20430E020E0FA01C591D4917C
:1003B000E881B90190E080E0EB23EA130AC02F5FE7
:1003C0003F4F6C157D058E059F0578F36FEF7FEF2E
:1003D000CB01DF91CF91FF90EF90DF90CF90089508
:1003E0008150823108F05AC0E82FF0E08827E450AD
:1003F000FE4F8F4F0C94F0131C0220020E021402C9
:1004000018024E02230229022D02330237023B0258
:10041000410245024E0249024F0253028091800080
:100420008F77809380000895809180008F7DF9CF31
:1004300080918000877FF5CF84B58F7784BD089544
:1004400084B58F7DFBCF8091B0008F778093B00013
:1004500008958091B0008F7DF9CF809190008F77C3
:10046000809390000895809190008F7DF9CF8091C6
:100470009000877FF5CF8091A0008F778093A000B8
:1004800008958091A0008F7DF9CF8091A000877F93
:10049000F5CF809120018F7780932001089580917E
:1004A00020018F7DF9CF80912001877FF5CF1F93A9
:1004B000CF93DF93282F30E0F901E050FE4F849175
:1004C000F901E054FD4FD491F901E658FD4FC49174
:1004D000CC23A9F0162F81110E94F001EC2FF0E03F
:1004E000EE0FFF1FE05AFD4FA591B4918FB7F8941E
:1004F000EC91111108C0D095DE23DC938FBFDF9102
:10050000CF911F910895DE2BF8CFCF93DF9390E02A
:10051000FC01E054FD4F249186589D4FFC018491CD
:100520008823C9F090E0880F991FFC01EA51FE4F23
:10053000A591B491FC01E05AFD4FC591D491611190
:100540000DC09FB7F8948C91209582238C9388815D
:10055000282328839FBFDF91CF910895623051F403
:100560009FB7F8943C91822F809583238C93E881E8
:100570002E2BEFCF8FB7F894EC912E2B2C938FBFAF
:10058000EACF863308F0865320917B00982F98702D
:10059000277F922B90937B008770806480937C00F0
:1005A00080917A00806480937A0080917A0086FD41
:1005B000FCCF809178009091790008953FB7F8942E
:1005C0008091110490911204A0911304B09114042D
:1005D00026B5A89B05C02F3F19F00196A11DB11D9E
:1005E0003FBFBA2FA92F982F8827BC01CD01620FDA
:1005F000711D811D911D42E0660F771F881F991F95
:100600004A95D1F708958F929F92AF92BF92CF9261
:10061000DF92EF92FF924B015C010E94DE026B01C0
:100620007C010E94DE026C197D098E099F09683EDB
:10063000734081059105A8F321E0821A9108A10871
:10064000B10888EEC80E83E0D81EE11CF11C8114AD
:100650009104A104B10429F7FF90EF90DF90CF90AF
:10066000BF90AF909F908F9008952FB7F8946091AE
:100670000D0470910E0480910F04909110042FBF0F
:100680000895AF92BF92CF92DF92EF92FF920F93B5
:100690001F93CF93DF936C017B018B01040F151F18
:1006A000EB015E01AE18BF08C017D10759F0699180
:1006B000D601ED91FC910190F081E02DC6011995D4
:1006C000892B79F7C501DF91CF911F910F91FF9091
:1006D000EF90DF90CF90BF90AF900895FC01538DC5
:1006E000448D252F30E0842F90E0821B930B54170C
:1006F00010F0CF96089501970895FC01918D828D99
:10070000981761F0A28DAE0FBF2FB11D5D968C9131
:10071000928D9F5F9F73928F90E008958FEF9FEF70
:100720000895FC01918D828D981731F0828DE80F2C
:10073000F11D858D90E008958FEF9FEF0895FC01E6
:10074000918D228D892F90E0805C9F4F821B9109B3
:100750008F739927089585E194E00E949F0321E01B
:10076000892B09F420E0822F0895FC01A48DA80FA5
:10077000B92FB11DA35ABF4F2C91848D90E00196E3
:100780008F739927848FA689B7892C93A089B18903
:100790008C91837080648C93938D848D981306C0A4
:1007A0000288F389E02D80818F7D80830895EF9208
:1007B000FF920F931F93CF93DF93EC0181E0888F1B
:1007C0009B8D8C8D98131AC0E889F989808185FFEB
:1007D00015C09FB7F894EE89FF896083E889F9898D
:1007E00080818370806480839FBF81E090E0DF918F
:1007F000CF911F910F91FF90EF900895F62E0B8DE2
:1008000010E00F5F1F4F0F731127E02E8C8D8E119C
:100810000CC00FB607FCFACFE889F989808185FF03
:10082000F5CFCE010E94B503F1CFEB8DEC0FFD2F7C
:10083000F11DE35AFF4FF0829FB7F8940B8FEA89BE
:10084000FB8980818062CFCFCF93DF93EC01888DCD
:100850008823B9F0AA89BB89E889F9898C9185FD3B
:1008600003C0808186FD0DC00FB607FCF7CF8C91C9
:1008700085FFF2CF808185FFEDCFCE010E94B503C9
:10088000E9CFDF91CF91089580E090E0892B29F0A6
:100890000E94AB0381110E94000080E090E0892B50
:1008A00049F080E090E0892B29F00E94000081113E
:1008B0000E94000080E090E0892B49F080E090E009
:1008C000892B29F00E94000081110E94000080E025
:1008D00090E0892B49F080E090E0892B29F00E947C
:1008E000000081110C9400000895209106043091BD
:1008F00007042817390771F49091040480910504C6
:10090000981741F0E0910404F0E0EC53FC4F808133
:1009100090E008958FEF9FEF08950895EF92FF9272
:100920000F931F93CF93DF93DC015C96ED90FC90C7
:100930005D97E114F10479F481E090E013969C93C3
:100940008E93129790E080E0DF91CF911F910F91ED
:10095000FF90EF9008955196ED91FC91529750962B
:100960008C915097982F90950FB75E962C915E972B
:10097000122F127021FD6095F8942081112319F136
:10098000282B2083E7012197F1F728E0462F50E03C
:10099000308160FF1AC0382B3083E7012197F1F7CF
:1009A000BA0175956795215089F7112381F08081EF
:1009B000892380830FBF5C968D919C910197F1F7FD
:1009C00081E090E0C1CF2923DCCF3923E5CF9081AE
:1009D000892BEFCF2091060430910704281739079F
:1009E00061F4809105042091040490E0805C9F4FA5
:1009F000821B91098F739927089590E080E00895F4
:100A0000209106043091070428173907B9F4909112
:100A1000040480910504981789F0E0910404F0E043
:100A2000EC53FC4F80812091040430E02F5F3F4F56
:100A30002F7333272093040490E008958FEF9FEFE6
:100A4000089590E080E00895FB0101900020E9F70F
:100A50003197AF01461B570BDC01ED91FC910280F1
:100A6000F381E02D1994CF93DF93FC0144815581EC
:100A70006081718182EF94E00E944103EC016AE29F
:100A800072E082EF94E00E9424058C0F9D1FDF919D
:100A9000CF9108958F929F92AF92BF920F931F9321
:100AA000CF93DF93CDB7DEB7A1970FB6F894DEBF33
:100AB0000FBECDBF19A2423008F44AE08E010F5D8F
:100AC0001F4F842E912CB12CA12CA50194010E94C2
:100AD000CE13E62FB901CA01EA3004F5E05DD80172
:100AE000EE938D01232B242B252B79F790E080E0CA
:100AF000109729F0BD0185E194E00E942405A1969C
:100B00000FB6F894DEBF0FBECDBFDF91CF911F911E
:100B10000F91BF90AF909F908F900895E95CDFCFC9
:100B2000CF92DF92EF92FF92CF93DF936B017C0124
:100B30006DE285E194E00E94D703EC0166277727F8
:100B4000CB016C197D098E099F094AE00E944A0574
:100B50008C0F9D1FDF91CF91FF90EF90DF90CF9092
:100B60000895BC0185E194E00C9424054F925F92B6
:100B70006F927F928F929F92AF92BF92CF92DF92AD
:100B8000EF92FF920F931F93CF936B017C01742E12
:100B9000AC019B010E9494126DE272E0811126C0AB
:100BA00046015701E894B7F82FEF3FEF4FE75FE7B3
:100BB000C501B4010E94941281110CC02FEF3FEFC8
:100BC0004FE75FE7C501B4010E94061061E372E0E0
:100BD000181664F02FEF3FEF4FE75FE4C701B6014F
:100BE0000E943F121816ACF465E372E085E194E0D0
:100BF000CF911F910F91FF90EF90DF90CF90BF901A
:100C0000AF909F908F907F906F905F904F900C94DB
:100C100024052FEF3FEF4FE75FECC701B6010E94BD
:100C2000061087FDE1CF20E030E0A901C701B60141
:100C30000E94061010E000E087FF0AC06DE285E127
:100C400094E00E94D7038C01F7FAF094F7F8F0943F
:100C5000C0E060E070E080E09FE37C1641F020E0BF
:100C600030E040E251E40E949711CF5FF6CFA70138
:100C700096010E942B112B013C010E9410124B0186
:100C80005C014AE00E944A057C01E00EF11ECC2383
:100C9000C1F1C501B4010E940B109B01AC01C3015D
:100CA000B2010E942A114B015C016EE285E194E0E1
:100CB0000E94D703E80EF91EC15018F120E030E081
:100CC00040E251E4C501B4010E946C102B013C01CB
:100CD0000E9410124B01B12CA12C4AE0C501B401B5
:100CE0000E944A05E80EF91EC501B4010E940B10CE
:100CF0009B01AC01C301B2010E942A114B015C01AE
:100D0000DBCFC701CF911F910F91FF90EF90DF9044
:100D1000CF90BF90AF909F908F907F906F905F909B
:100D20004F9008950F931F93CF93DF93EC01888129
:100D30009981009759F02A813B812617370730F0B7
:100D400081E0DF91CF911F910F9108958B016F5F2B
:100D50007F4F0E941D15009759F0998388831B834C
:100D60000A832C813D81232B59F7FC011082E8CFA7
:100D700080E0E7CFEF92FF920F931F93CF93DF9323
:100D80006115710541F480E0DF91CF911F910F91C2
:100D9000FF90EF90089541155105B1F07B01EC01F2
:100DA0000C811D81040F151FB8010E949206882333
:100DB00051F3288139818C819D81B701820F931F66
:100DC0000E9407161D830C8381E0DECFCF93DF9353
:100DD000EC0188819981009711F00E949414198286
:100DE00018821D821C821B821A82DF91CF91089586
:100DF000CF93DF93EC01FB0101900020E9F73197DD
:100E0000AF01461B570B0E94BA06811103C0CE01E9
:100E10000E94E606CE01DF91CF910895CF93DF9334
:100E2000EC01FB0144815581608171810E94BA0609
:100E3000811103C0CE010E94E606CE01DF91CF9161
:100E40000895EF92FF920F931F93CF93DF93EC01DE
:100E50007B018A01BA010E94920681110BC0CE016A
:100E60000E94E606CE01DF91CF911F910F91FF9076
:100E7000EF9008951D830C83B701888199810E94AA
:100E80000716F0CFFB01DC0111961C921E921396FF
:100E90001C921E92129715961C921E9214978617FA
:100EA000970749F0608171816115710521F04481D6
:100EB00055810C9421070895FC0111821082138240
:100EC000128215821482FB0101900020E9F731970C
:100ED000AF01461B570B0C942107CF92DF92EF9284
:100EE000FF920F931F93CF93DF931F921F92CDB763
:100EF000DEB78C017B0189E392E00E94B105F70126
:100F0000448155816081718185E194E00E944103B3
:100F100069E472E085E194E00E9424056AE272E0EF
:100F200085E194E00E9424056CE272E0C8010E9411
:100F30005C07C7010E9433050E9435036B017C01E9
:100F4000F8EECF0EF3E0DF1EE11CF11C0E9435032A
:100F50006C157D058E059F05A8F482EF94E00E9434
:100F6000EA04892B99F382EF94E00E9400058983BB
:100F70001A8241E050E0BE016F5F7F4FC8010E94BE
:100F8000BA06EBCFC8010F900F90DF91CF911F9160
:100F90000F91FF90EF90DF90CF900895FC0180813A
:100FA0009181009711F00C94941408951F920F9260
:100FB0000FB60F9211242F933F938F939F93AF936C
:100FC000BF9380910D0490910E04A0910F04B091F5
:100FD000100430910C0423E0230F2D3758F50196AF
:100FE000A11DB11D20930C0480930D0490930E0459
:100FF000A0930F04B09310048091110490911204F7
:10100000A0911304B09114040196A11DB11D809309
:10101000110490931204A0931304B0931404BF918D
:10102000AF919F918F913F912F910F900FBE0F9095
:101030001F90189526E8230F0296A11DB11DD2CF4F
:101040001F920F920FB60F9211240BB60F922F938F
:101050003F934F935F936F937F938F939F93AF9340
:10106000BF93EF93FF9385E194E00E94B503FF9156
:10107000EF91BF91AF919F918F917F916F915F9110
:101080004F913F912F910F900BBE0F900FBE0F907D
:101090001F9018951F920F920FB60F9211240BB646
:1010A0000F922F938F939F93EF93FF93E0912504DB
:1010B000F09126048081E0912B04F0912C0482FDB4
:1010C0001DC0908180912E048F5F8F7320912F041B
:1010D000821741F0E0912E04F0E0EB5EFB4F958F1C
:1010E00080932E04FF91EF919F918F912F910F90FC
:1010F0000BBE0F900FBE0F901F9018958081F2CFFE
:101100001F920F920FB60F9211240BB60F922F93CE
:101110003F934F935F936F937F938F939F93AF937F
:10112000BF93EF93FF93E0910604F091070430978B
:1011300049F0A685B7858585968D91FF16C09C914F
:101140008923B1F4FF91EF91BF91AF919F918F915E
:101150007F916F915F914F913F912F910F900BBEB7
:101160000F900FBE0F901F9018959C91892351F7F7
:10117000A389B4899C918589809589238C938689DC
:1011800097890197F1F7608D718DA685B785558593
:1011900038E020E0CB010197F1F7822F90E09595A0
:1011A0008795282F4C91452309F02068315091F7FD
:1011B000868D81FD20958091050490E001968F73C6
:1011C000992730910404381799F0A0910504B0E0F4
:1011D000AC53BC4F2C9380930504828D938D019763
:1011E000F1F7A389B4898C919589892B8C93AACF27
:1011F000868D8160868FF1CF1092180410921704AB
:1012000088EE93E0A0E0B0E08093190490931A0474
:10121000A0931B04B0931C042AE032E03093160420
:101220002093150425EC30E0309322042093210410
:1012300024EC30E0309324042093230420EC30E0AD
:10124000309326042093250421EC30E030932804C9
:101250002093270422EC30E030932A0420932904C1
:1012600026EC30E030932C0420932B0410922E04B3
:1012700010922F0410923004109231041092F50451
:101280001092F4048093F6049093F704A093F8046A
:10129000B093F9048CE192E09093F3048093F2040C
:1012A000109209051092080510920B0510920A057C
:1012B00010920D0510920C0510920F0510920E055C
:1012C000609110056E7F6D7F60931005669561706B
:1012D00081E068278BE00E94570261E08BE00E946A
:1012E0008502EBECF2E0E491E0930205E5E8F2E040
:1012F000E491F0E0EE0FFF1FE05AFD4F85919491CD
:10130000909304058093030560E08AE00E948502C3
:101310008091100581FD04C061E08AE00E945702BF
:101320008AE08093FE04EAECF2E0E491E093FF04AB
:10133000E4E8F2E0E491F0E0EE0FFF1FEA5BFD4F1E
:101340008591949190930105809300056FE472E07C
:101350008CEE94E00E945C0765E572E086EE94E016
:101360000E945C076FE572E080EE94E00E945C07EB
:1013700060E772E08AED94E00E945C0763E872E047
:1013800084ED94E00E945C0766E872E08EEC94E0E5
:101390000E945C0787E38093C5048FE892E4A9E983
:1013A000B2E48093CA049093CB04A093CC04B0938E
:1013B000CD0480E090E0A0E2B1E48093C604909375
:1013C000C704A093C804B093C90482E08093B70413
:1013D00086E18093B804E2ECF2E0E491E093B90492
:1013E000ECE7F2E0E491E093BA0480E89EE3A0E049
:1013F000B0E08093BF049093C004A093C104B09365
:10140000C2040895CF93DF93CDB7DEB7C855D1405E
:101410000FB6F894DEBF0FBECDBF789484B582605E
:1014200084BD84B5816084BD85B5826085BD85B588
:10143000816085BD80916E00816080936E00109206
:101440008100809181008260809381008091810081
:101450008160809381008091800081608093800012
:101460008091B10084608093B1008091B000816070
:101470008093B00080919100826080939100809170
:1014800091008160809391008091900081608093B1
:1014900090008091A10082608093A1008091A100C2
:1014A00081608093A1008091A00081608093A00062
:1014B00080912101826080932101809121018160CE
:1014C000809321018091200181608093200180918F
:1014D0007A00846080937A0080917A0082608093A1
:1014E0007A0080917A00816080937A0080917A00FE
:1014F000806880937A001092C100E0912504F091F9
:10150000260482E08083E0912104F091220410827D
:10151000E0912304F09124048FEC808310922D0439
:10152000E0912904F0912A0486E08083E091270469
:10153000F0912804808180618083E0912704F091FC
:101540002804808188608083E0912704F09128043A
:10155000808180688083E0912704F0912804808155
:101560008F7D808310920D0510920C0510920B0553
:1015700010920A0510920905109208058FE190E07B
:1015800090930F0580930E058091FE0496EF980FBF
:10159000943048F02EEC280F243028F022EC280F4D
:1015A000283008F061C021E030E030930905209335
:1015B00008052DE130E030930B0520930A052DE05E
:1015C00030E030930D0520930C05943050F02EEC54
:1015D000280F243030F022EC280FF0E0E0E0283033
:1015E00010F4E8E6F0E02081943028F032EC380F77
:1015F000383008F41EC331E0232B943048F09EECC1
:10160000980F943028F08E53F0E0E0E0883010F42A
:10161000E8E6F0E020832091FE0436EF320F34300C
:1016200008F409C38EEC820F843008F404C382EC02
:10163000820F883008F402C390E080E090930605A2
:1016400080930505343008F0FCC22650330B81E04E
:1016500001C0880F2A95EAF78093070580910E054F
:1016600090910F050197F1F780910C0590910D0570
:10167000892B49F1E0910604F091070424E0E23F50
:10168000F20709F1309739F0A389B4899C918589D3
:10169000809589238C93809110058E7F809310050F
:1016A000109205041092040482EF94E090930704D2
:1016B00080930604E0910505F091060580819091E4
:1016C0000705892B808360E08AE00E94850262E042
:1016D0008091B7040E9485020E943503605D7740C7
:1016E000810991096093BB047093BC048093BD048D
:1016F0009093BE0487E38093C4048E010F5B1E4F5A
:101700006DE872E0C8010E945C07B801AE014F5F4E
:101710005F4F7A01CA010E946D07C7010E94CE0780
:10172000C8010E94CE0764E972E0C8010E945C070C
:10173000B801C7010E946D07C7010E94CE07C8010A
:101740000E94CE0760EA72E0CE01895B9E4F0E9444
:101750005C076CEE74E0CE01895B9E4F0E940E0721
:101760006EE773E00E94F80666EE74E00E940E07D2
:1017700060E873E00E94F806BC01C8010E944207BD
:10178000B801C7010E946D07C7010E94CE07C801BA
:101790000E94CE07CE01895B9E4F0E94CE0761E07A
:1017A00087E00E94850261E086E00E94850261E098
:1017B00085E00E94850268EE73E080E090E00E9480
:1017C00003036AEC462E62E0562E61E086E00E943A
:1017D000570260E087E00E94570260E085E00E94C7
:1017E00057020E9435038090BB049090BC04A090E7
:1017F000BD04B090BE049B01AC01281939094A0907
:101800005B0949015A0130ED831637E09306A104C4
:10181000B10408F02BC28091C3048111E8C2812C6D
:10182000912C40ECA42E4FE7B42E8BEA92E00E945C
:10183000B10520E030E044E052E4C501B4010E946B
:101840003F1287FD0DC087ED92E00E94B10542E096
:10185000C501B4010E94B60584EF92E00E94B10573
:10186000EAE0F2E08491F2012490E4E8F2E03490BE
:10187000332009F449C381110E94F001E32DF0E007
:10188000EE0FFF1FEA5BFD4FA591B4918C912822CA
:1018900009F43AC361E087E00E94570260E086E005
:1018A0000E94570288EF92E00E94B10568EE73E053
:1018B00080E090E00E94030386E30E94C1029093BF
:1018C0000B0480930A04BC01990F880B990B97FFB6
:1018D00028C30E9490058BE292E00E94B10580919E
:1018E0000A0490910B048039914074F061E087E024
:1018F0000E94570260E086E00E94570264E670E0B2
:1019000080E090E00E9403038091C5040E94C10220
:10191000BC01990F880B990B0E940D109B01AC0123
:1019200060E070EC8FE794E40E94971120E030E0D3
:1019300040E85FE30E942A112091C6043091C70459
:101940004091C8045091C9040E946C102091CA04AF
:101950003091CB044091CC045091CD040E9497115A
:101960002EED37E341E350EC0E94441222E434E3CD
:1019700049EE52E40E946C1020E030E048E454E468
:101980000E943F12181684F48EE193E00E94B10584
:1019900061E087E00E94570260E086E00E94570203
:1019A00061E085E00E945702C501B4010E9409125E
:1019B000CB017093090460930804F801118210822E
:1019C00013821282158214824AE0B7010E94D10F5D
:1019D000F70101900020E9F73197AF014E195F0937
:1019E000B701C8010E94210769E473E0C7010E94A2
:1019F0005C0760EE74E0C7010E940E076EE573E0BD
:101A00000E94F8066EEC74E00E940E076CE573E02D
:101A10000E94F806B8010E940E07BC01CE018D5A43
:101A20009E4F0E944207C7010E94CE07C8010E9434
:101A3000CE0760E673E0C8010E945C07B801C701E9
:101A40000E946D07C7010E94CE07C8010E94CE0701
:101A50006CE673E0CE01895B9E4F0E945C076AEDE5
:101A600074E0CE01895B9E4F0E940E0762E873E02E
:101A70000E94F80664ED74E00E940E07BC01C801E4
:101A80000E944207B801C7010E946D07C7010E946A
:101A9000CE07C8010E94CE07CE01895B9E4F0E94EF
:101AA000CE07C95ADE4F88819981C755D140C95B9D
:101AB000DE4F19821882C754D140C75BDE4F1982AE
:101AC0001882C954D140C55BDE4F19821882CB54AD
:101AD000D1404AE0B70104960E94DC0FF701019063
:101AE0000020E9F73197AF014E195F09B701CE0128
:101AF000895B9E4F0E94210765E873E0CE01835BFE
:101B00009E4F0E945C07BE01695B7E4FCE01835BE6
:101B10009E4F0E940E07BC01C8010E944207B801F7
:101B2000C7010E946D07C7010E94CE07C8010E942D
:101B3000CE07CE01835B9E4F0E94CE07CE01895B0C
:101B40009E4F0E94CE078091080490910904893528
:101B5000924064F063E973E085E194E00E9424051B
:101B60006AE272E085E194E00E9424050E94350358
:101B70006093FA047093FB048093FC049093FD043B
:101B800082EF94E00E94000597FFD3C10E943503C5
:101B90002091FA043091FB044091FC045091FD0423
:101BA000621B730B840B950B2091F6043091F704A4
:101BB0004091F8045091F904621773078407950760
:101BC000F8F2CE018D5A9E4F0E94330583EA93E0CE
:101BD0000E94B1056091080470910904072E000C61
:101BE000880B990B97FFA1C10E9490056AE272E0F1
:101BF00085E194E00E94240566EB73E0C8010E9431
:101C00005C07B801C7010E946D07C7010E94CE079B
:101C1000C8010E94CE0760E177E280E090E00E9478
:101C20000303CE018D5A9E4F0E94CE070E944404AA
:101C3000CCCD34E0E1CC8BE690E000CD8DE690E0B9
:101C4000FDCC88E0223309F407CD84E0233309F486
:101C500003CD82E0243309F4FFCC82EC820F88307C
:101C600018F42E53330BF3CC81E0F6CC6093BB0415
:101C70007093BC048093BD049093BE041092B6048C
:101C80001092B5041092B4041092B3041092B204EE
:101C900062E08091B7040E94850261E070E080E01C
:101CA00090E00E94030361E08091B7040E948502E6
:101CB00060E08091B7040E9457028091B80485517A
:101CC000823018F58BE291E10197F1F762E08091A3
:101CD000B7040E9485028091C40490E0823091058F
:101CE00038F0880F991F880F991F05970197F1F712
:101CF000F89480E00E94B8016F3F7F4F8F4F9F4F55
:101D000059F41092C30478948ACD64E170E080E0C5
:101D100090E00E940303DACF81E00E94B8016F3F98
:101D20007F4F8F4F9F4F69F35701670180E00E94FB
:101D3000B801F601608371838283938381E00E94FE
:101D4000B801F6016483758386839783F8E0CF0E2C
:101D5000D11C0C151D0551F7789490E080E0F50139
:101D60006080718082809380448155816681778113
:101D7000FFEF6F167F068F069F0631F04F3F2FEF64
:101D800052076207720719F41092C30448CDFC0190
:101D900033E0F595E7953A95E1F7EE54FB4F208156
:101DA000220F641675068606970680F12083019639
:101DB00038E0A30EB11C8832910589F64091B60433
:101DC0002091B2048091B304280F3327331F8091F0
:101DD000B404280F311D8091B504820F932F911DFB
:101DE00099274817190681F681E08093C3048091F2
:101DF000B8048C3009F463C058F48B3011F1812C95
:101E0000912C90ECA92E9FE7B92E45C02160CECF32
:101E100085518230A0F73090B404632D70E0762FA6
:101E2000662766277F778091B504682B90E080E075
:101E30000E940B102DEC3CEC4CEC5DE30E946C100E
:101E40005AC06091B40470E090E080E00E940B10F2
:101E50004B015C01D090B504D7FE0AC0AC019B01D8
:101E600060E070E080E89FEB0E942A114B015C016A
:101E70006D2D6F7070E090E080E00E940D102DECF1
:101E80003CEC4CEC5DE30E946C10A50194010E94B7
:101E90002B114B015C01A5019401C501B4010E9405
:101EA00094128111C2CC82EC92E00E94B10542E012
:101EB000C501B4010E94B60580ED92E0B8CC309027
:101EC000B404632D70E090E080E00E940B104B01A1
:101ED0005C016091B5046F7070E090E080E00E945A
:101EE0000D102DEC3CEC4CEC5DE30E946C10A50158
:101EF00094010E942B114B015C0137FECCCFB7FA45
:101F0000B094B7F8B094C7CF60E087E00E94570262
:101F100061E086E00E94570280E193E00E94B105F3
:101F2000CBCC4AE00E944A05D6CC4AE00E944A0542
:101F30005DCECE9709F01ACE44CE8EEC94E00E948E
:101F4000CE0784ED94E00E94CE078AED94E00E94D3
:101F5000CE0780EE94E00E94CE0786EE94E00E94C9
:101F6000CE078CEE94E00E94CE078CE192E0909335
:101F7000F3048093F2048091060490910704825F39
:101F8000944071F4E0910505F091060590818091EF
:101F90000705809589238083109207041092060418
:101FA0000895BB274A3031F4992322F4BDE290957D
:101FB00081959F4F0C94DD0FBB27FB015527AA2766
:101FC000880F991FAA1FA41710F0A41B83955051C6
:101FD000B9F7A05DAA3308F0A95DA193009779F73E
:101FE000B111B1931192CB010C94F60FDC01FC01FD
:101FF000672F71917723E1F7329704C07C916D933D
:1020000070836291AE17BF07C8F308950E9448100D
:1020100008F481E00895E89409C097FB3EF4909598
:102020008095709561957F4F8F4F9F4F9923A9F0B1
:10203000F92F96E9BB279395F69587957795679540
:10204000B795F111F8CFFAF4BB0F11F460FF1BC084
:102050006F5F7F4F8F4F9F4F16C0882311F096E917
:1020600011C0772321F09EE8872F762F05C06623C5
:1020700071F096E8862F70E060E02AF09A95660F7E
:10208000771F881FDAF7880F9695879597F9089537
:10209000990F0008550FAA0BE0E8FEEF1616170679
:1020A000E807F907C0F012161306E407F50798F0E1
:1020B000621B730B840B950B39F40A2661F0232BFA
:1020C000242B252B21F408950A2609F4A140A69576
:1020D0008FEF811D811D08950E947F100C94F010D8
:1020E0000E94E21038F00E94E91020F0952311F0D0
:1020F0000C94D9100C94DF1011240C9424110E941C
:10210000011170F3959FC1F3950F50E0551F629F29
:10211000F001729FBB27F00DB11D639FAA27F00D40
:10212000B11DAA1F649F6627B00DA11D661F829F67
:102130002227B00DA11D621F739FB00DA11D621F4C
:10214000839FA00D611D221F749F3327A00D611D69
:10215000231F849F600D211D822F762F6A2F11244B
:102160009F5750409AF0F1F088234AF0EE0FFF1F7E
:10217000BB1F661F771F881F91505040A9F79E3FD5
:10218000510580F00C94D9100C9424115F3FE4F3B6
:10219000983ED4F3869577956795B795F795E7952B
:1021A0009F5FC1F7FE2B880F911D9695879597F934
:1021B000089597F99F6780E870E060E008959FEFC9
:1021C00080EC089500240A941616170618060906CE
:1021D000089500240A94121613061406050608959D
:1021E000092E0394000C11F4882352F0BB0F40F425
:1021F000BF2B11F460FF04C06F5F7F4F8F4F9F4F65
:10220000089557FD9058440F551F59F05F3F71F0E6
:102210004795880F97FB991F61F09F3F79F087954D
:102220000895121613061406551FF2CF4695F1DFD6
:1022300008C0161617061806991FF1CF8695710566
:10224000610508940895E894BB2766277727CB019A
:1022500097F908955058BB27AA270E9442110C9461
:10226000F0100E94E21038F00E94E91020F039F4DA
:102270009F3F19F426F40C94DF100EF4E095E7FB71
:102280000C94D910E92F0E94011158F3BA17620774
:1022900073078407950720F079F4A6F50C942311B1
:1022A0000EF4E0950B2EBA2FA02D0B01B901900171
:1022B0000C01CA01A0011124FF27591B99F0593FB5
:1022C00050F4503E68F11A16F040A22F232F342FFD
:1022D0004427585FF3CF469537952795A795F0404B
:1022E0005395C9F77EF41F16BA0B620B730B840B60
:1022F000BAF09150A1F0FF0FBB1F661F771F881F18
:10230000C2F70EC0BA0F621F731F841F48F487956F
:1023100077956795B795F7959E3F08F0B0CF939561
:10232000880F08F09927EE0F9795879508950E94DA
:10233000AB110C94F0100E94E91058F00E94E210CA
:1023400040F029F45F3F29F00C94D91051110C94FE
:1023500024110C94DF100E94011168F39923B1F34A
:10236000552391F3951B550BBB27AA2762177307BB
:10237000840738F09F5F5F4F220F331F441FAA1F4F
:10238000A9F335D00E2E3AF0E0E832D0915050400B
:10239000E695001CCAF72BD0FE2F29D0660F771FB9
:1023A000881FBB1F261737074807AB07B0E809F09F
:1023B000BB0B802DBF01FF2793585F4F3AF09E3F24
:1023C000510578F00C94D9100C9424115F3FE4F37C
:1023D000983ED4F3869577956795B795F7959F5F67
:1023E000C9F7880F911D9695879597F90895E1E0B3
:1023F000660F771F881FBB1F621773078407BA0712
:1024000020F0621B730B840BBA0BEE1F88F7E0956C
:1024100008950E9410126894B1110C94241108952B
:102420000E94091188F09F5798F0B92F9927B7514A
:10243000B0F0E1F0660F771F881F991F1AF0BA9568
:10244000C9F714C0B13091F00E942311B1E0089592
:102450000C942311672F782F8827B85F39F0B93F84
:10246000CCF3869577956795B395D9F73EF490951B
:102470008095709561957F4F8F4F9F4F08950E9473
:10248000481008F48FEF0895FA01EE0FFF1F309601
:1024900021053105A1F16115710561F48038BFE3B3
:1024A0009B0749F168949038810561F08038BFEF4F
:1024B0009B0741F099234AF5FF3FE10531052105CE
:1024C00019F1E8940894E795D901AA2329F4AB2FD0
:1024D000BE2FF85FD0F310C0FF5F70F4A695E0F751
:1024E000F73950F019F0FF3A38F49F779F930DD0E9
:1024F0000F9007FC9058089546F00C94DF1060E0B0
:1025000070E080E89FE308954FE79F775F934F93D4
:102510003F932F930E9444132F913F914F915F91CE
:102520000E946C100C94A1120E944810880B990B09
:10253000089529F416F00C94D9100C9423110C94DE
:10254000DF100E940911A8F39638A0F707F80F9240
:10255000E8942BE33AEA48EB5FE70E9482100F927F
:102560000F920F924DB75EB70F920E948C13E4EE5C
:10257000F0E00E94D3124F915F91EF91FF91E595AA
:10258000EE1FFF1F49F0FE57E0684427EE0F441F7F
:10259000FA95E1F74195550B0E9406130F9007FE3F
:1025A0000C94FA120895DF93CF931F930F93FF9229
:1025B000EF92DF927B018C01689406C0DA2EEF0166
:1025C0000E947F10FE01E894A591259135914591D7
:1025D0005591A6F3EF010E944211FE019701A80157
:1025E000DA9469F7DF90EF90FF900F911F91CF91F0
:1025F000DF9108959B01AC0160E070E080E89FE30B
:102600000C9497110C94D9100C94C0130E940911CA
:10261000D8F39923C9F3940F511DA3F3915050405F
:1026200094F059F0882332F0660F771F881F91507D
:102630005040C1F79E3F51052CF7880F911D96958C
:10264000879597F908955F3FACF0983E9CF0BB27C3
:10265000869577956795B79508F4B1609395C1F71E
:10266000BB0F58F711F460FFE8CF6F5F7F4F8F4FBC
:102670009F4FE3CF0C94241116F00C94C0130C94CC
:10268000DF1068940C94D9100E940911A8F39923C3
:10269000C1F3AEF3DF93CF931F930F93FF92C92F34
:1026A000DD2788232AF02197660F771F881FDAF726
:1026B00020E030E040E85FEB9FE3883920F0803E87
:1026C00038F021968F770E942B11ECE0F1E004C0E6
:1026D0000E942B11E9E3F1E00E94D3128B01BE01AD
:1026E000EC01FB2E6F5771097595771F880B990BBD
:1026F0000E940D1028E132E741E35FE30E947F1062
:10270000AF2D9801AE01FF900F911F91CF91DF91F6
:102710000E9442110C94F010FA01DC01AA0FBB1FB9
:102720009B01AC01BF5728F4222733274427507858
:1027300020C0B75190F4AB2F0024469537952795CC
:10274000011CA395D2F3002071F0220F331F441F08
:10275000B395DAF30ED00C942A1161307105A0E81C
:102760008A07B94630F49B01AC0166277727882792
:102770009078309621F020833183428353830895EB
:102780009F3F31F0915020F4879577956795B795E5
:10279000880F911D9695879597F90895A1E21A2EB5
:1027A000AA1BBB1BFD010DC0AA1FBB1FEE1FFF1FF5
:1027B000A217B307E407F50720F0A21BB30BE40B45
:1027C000F50B661F771F881F991F1A9469F760958C
:1027D0007095809590959B01AC01BD01CF01089546
:1027E000EE0FFF1F881F8BBF0790F691E02D199405
:1027F0000F931F93CF93DF938230910510F482E003
:1028000090E0E0911305F091140530E020E0B0E095
:10281000A0E0309799F42115310509F44AC0281B2E
:10282000390B24303105D8F58A819B8161157105FA
:1028300089F1FB0193838283FE0111C040815181A4
:102840000281138148175907E0F04817590799F496
:10285000109761F012960C93129713961C93329670
:10286000CF01DF91CF911F910F9108950093130530
:1028700010931405F4CF2115310551F04217530779
:1028800038F0A901DB019A01BD01DF01F801C1CFD8
:10289000EF01F9CF9093140580931305CDCFFE017E
:1028A000E20FF31F819391932250310939832883DA
:1028B000D7CF2091110530911205232B41F420919F
:1028C00002023091030230931205209311052091EA
:1028D0000002309101022115310541F42DB73EB7B8
:1028E0004091040250910502241B350BE091110523
:1028F000F0911205E217F307A0F42E1B3F0B2817E7
:10290000390778F0AC014E5F5F4F2417350748F068
:102910004E0F5F1F509312054093110581939193C1
:102920009FCFF0E0E0E09CCFCF93DF930097E9F0FA
:10293000FC01329713821282A0911305B091140505
:10294000ED0130E020E01097A1F420813181820F69
:10295000931F20911105309112052817390709F0AE
:1029600061C0F0931205E0931105DF91CF910895B6
:10297000EA01CE17DF07E8F54A815B819E01411528
:102980005105B1F7E901FB83EA8349915991C40FDD
:10299000D51FEC17FD0761F4808191810296840FA9
:1029A000951FE90199838883828193819B838A8320
:1029B000F0E0E0E012968D919C9113970097B9F5A5
:1029C0002D913C911197CD010296820F931F20917A
:1029D0001105309112052817390739F6309751F54E
:1029E0001092140510921305B0931205A0931105CF
:1029F000BCCFD383C28340815181840F951FC817F8
:102A0000D90761F44E5F5F4F88819981480F591F44
:102A1000518340838A819B81938382832115310571
:102A200009F0B0CFF0931405E09313059ECFFD019C
:102A3000DC01C0CF13821282D7CF4F925F926F9288
:102A40007F928F929F92AF92BF92CF92DF92EF923E
:102A5000FF920F931F93CF93DF938C01009799F40C
:102A6000CB01DF91CF911F910F91FF90EF90DF90FD
:102A7000CF90BF90AF909F908F907F906F905F901E
:102A80004F900C94F813FC01E60FF71F9C012250A5
:102A90003109E217F30708F4AEC0D901CD91DC91FA
:102AA0001197C617D70720F1C530D10578F0CE01B0
:102AB00004978617970750F0C61BD70B2297C19330
:102AC000D1936D937C93CF010E949414C801DF9140
:102AD000CF911F910F91FF90EF90DF90CF90BF901B
:102AE000AF909F908F907F906F905F904F900895E0
:102AF0005B01AC1ABD0A4C018C0E9D1EA091130502
:102B0000B0911405512C412CF12CE12C109731F58A
:102B100080911105909112058815990509F05CC006
:102B20004616570608F058C08091000290910102A5
:102B3000009741F48DB79EB7409104025091050271
:102B4000841B950BE817F90708F055C0F0931205A0
:102B5000E0931105F90171836083B8CF8D919C9149
:102B6000119712966C90129713967C901397A81554
:102B7000B90559F56C0142E0C40ED11CCA14DB043E
:102B800020F1AC014A195B09DA011296159780F021
:102B90006282738251834083D9016D937C93E114E7
:102BA000F10471F0D7011396FC93EE9312978ECF38
:102BB00022968C0F9D1FF90191838083F301EFCF43
:102BC000F0931405E093130581CF4816590608F4D5
:102BD0002C017D01D3019ACFCB010E94F8137C0117
:102BE000009749F0AE01B8010E94FE15C8010E948D
:102BF000941487016BCF10E000E068CFFB01DC018B
:102C000002C001900D9241505040D8F70895FB0149
:102C1000DC0101900D920020E1F7089511E0C4E875
:102C2000D1E000E006C0802FFE010E94F013219643
:102C3000011DC538D10780E00807A9F7F894FFCF38
:102C400000001505800000000000D70341036E035B
:102C500024049F037D039103000000008E044103C0
:102C600021058D04EA04000575040D0A006E616EED
:102C700000696E66006F766600415420436F6D6D8B
:102C8000616E64203D3D3E20002020202020004336
:102C90006F64616B006C656D6C656D303634005728
:102CA0004B364854364150505543385A56415300DC
:102CB0006170692E7468696E67737065616B2E63ED
:102CC0006F6D003830006669656C64310041542BCB
:102CD0005253540041542B43574D4F44453D31000E
:102CE00041542B43574A41503D22006661696C654F
:102CF0006420746F2072656164204448542032322D
:102D00000A0054656D70657261747572653A2000D1
:102D1000C2B043207E200054656D7072617475727C
:102D200065204C6576656C20526973696E67207406
:102D30006F3A2000C2B0430073656E73696E6720FE
:102D4000736F6D6520566962726174696F6E0A00F7
:102D50004E6F20566962726174696F6E0A00446535
:102D600074656374696E672068696768206C65764E
:102D7000656C206F6620536D6F6B6520696E2074E3
:102D8000686520526F6F6D0A00474554202F75709B
:102D9000646174653F6170695F6B65793D00260011
:102DA00041542B4349504D55583D310041542B431C
:102DB000495053544152543D302C22544350222CFC
:102DC0002200222C0041542B43495053454E443D90
:102DD000302C00686967682074656D707261747565
:102DE00072650056616C756520746F206265207392
:102DF000656E743A200041542B434950434C4F5365
:042E0000453D30001C
:00000001FF
